:040800006AEF30F07B
:080808007DEF04F00000000088
:100810000000000000000000046ED8CF05F0E0CF1B
:1008200006F00001E9CF0CF0EACF07F0E1CF08F0C5
:10083000E2CF09F0D9CF0AF0DACF0BF0F3CF12F004
:10084000F4CF13F0FACF14F0F5CF15F0F6CF16F081
:10085000F7CF17F000C00EF001C00FF002C010F08B
:1008600003C011F0F2AA38EF04F0F2B432EF07F04F
:100870009DA23EEF04F09EB2FEEF06F0A0A244EF70
:1008800004F0A1B227EF07F0F0A64AEF04F0F0B0B1
:10089000ECEF06F09DAA50EF04F09EBA49EF07F086
:1008A0007DA456EF04F07EB412EF07F00EC000F006
:1008B0000FC001F010C002F011C003F00CC0E9FF3E
:1008C00007C0EAFF078E08C0E1FF09C0E2FF0AC0C7
:1008D000D9FF0BC0DAFF12C0F3FF13C0F4FF14C03E
:1008E000FAFF15C0F5FF16C0F6FF17C0F7FF04505A
:1008F00006C0E0FF05C0D8FF10001A6ED8CF1BF06D
:10090000E0CF1CF00001E9CF22F0EACF1DF0E1CFEB
:100910001EF0E2CF1FF0D9CF20F0DACF21F0F3CFD5
:1009200028F0F4CF29F0FACF2AF0F5CF2BF0F6CF4C
:100930002CF0F7CF2DF000C024F001C025F002C04C
:1009400026F003C027F0F2A8A9EF04F0F2B2DFEF1F
:1009500006F0A0AAAFEF04F0A1BAEDEF05F024C0B5
:1009600000F025C001F026C002F027C003F022C02D
:10097000E9FF1DC0EAFF1D8E1EC0E1FF1FC0E2FFA0
:1009800020C0D9FF21C0DAFF28C0F3FF29C0F4FF3F
:100990002AC0FAFF2BC0F5FF2CC0F6FF2DC0F7FFD1
:1009A0001A501CC0E0FF1BC0D8FF1000F76ABC0F34
:1009B000F66E090EF7220900F55012004144433F3C
:1009C0000000F76AD20FF66E090EF7220900F55003
:1009D00012004147433F0000F76AE80FF66E090E28
:1009E000F7220900F5501200564C473F0000F76A05
:1009F000FE0FF66E090EF7220900F550120053544F
:100A00004100F76A120FF66E0A0EF7220900F55040
:100A1000120056455200F76A260FF66E0A0EF722AC
:100A20000900F550120054504D3F0000F76A3C0F8A
:100A3000F66E0A0EF7220900F5501200564C543398
:100A40003F00F76A520FF66E0A0EF7220900F550C2
:100A50001200564C54353F00F76A680FF66E0A0EC6
:100A6000F7220900F5501200434D503F0000F76A8D
:100A70007E0FF66E0A0EF7220900F550120041545F
:100A8000543F0000F76A940FF66E0A0EF722090031
:100A9000F55012004F46463F0000F76AAA0FF66E67
:100AA0000A0EF7220900F5501200504F4D3F00008A
:100AB000F76AC00FF66E0A0EF7220900F550120011
:100AC00045564E3F0000F76AD60FF66E0A0EF72223
:100AD0000900F55012004144563F0000F76AEC0F40
:100AE000F66E0A0EF7220900F55012004C494E3FEF
:100AF00020310000F76A040FF66E0B0EF722090092
:100B0000F55012004C494E3F20320000F76A1C0F8E
:100B1000F66E0B0EF7220900F55012004C494E3FBD
:100B200020330000F76A340FF66E0B0EF72209002F
:100B3000F55012004C494E3F20340000F76A4C0F2C
:100B4000F66E0B0EF7220900F55012004C494E3F8D
:100B500020350000F76A640FF66E0B0EF7220900CD
:100B6000F550120053524E3F0000F76A7A0FF66EAE
:100B70000B0EF7220900F55012005052543F0000AE
:100B8000F76A900FF66E0B0EF7220900F55012006F
:100B90005054483F00000201AE5307E03B5031087B
:100BA00004E101013C8703D0020101013C973CC1F3
:100BB0008AFF00011200B00E0F01426FA80E416FB4
:100BC0004BC040FF929A776ABD0E786E796A925058
:100BD0000209926E93500001120081B208D0020106
:100BE000AE6B0001D8DF0101D787E5D0000178ACFA
:100BF000DCD0BC6A9E929D82B36AB26AA192A08246
:100C00000201AD6BAD51070810E30400040E006E45
:100C1000002EFED700D081B206D0AE6B0001BBDF44
:100C20000101D7870201AD2BEDD7036A6451C20FD2
:100C3000E96E010E0320EA6EEFCFB0F2B0C28CFF76
:100C400078AC20D08C946F506F6A6D30FEE36FCF1C
:100C5000B0F26F506F6A6D30FEE36FCFB1F28C84EB
:100C6000B051070BB36FB1C2B2F2B0B702D0080EE9
:100C7000B327B2C201F0B3C202F002C0AFF201C0AA
:100C8000AEF201D085D078AC83D0D8906435036AB9
:100C9000C70FE96E010E0320EA6EAFC2ECFFED5202
:100CA000AEC2EFFF645342E10001B2510201AF5DF9
:100CB00009E305E10001B1510201AE5D03E3300E2D
:100CC000656F2CD00001B6510201AF5D09E305E16B
:100CD0000001B5510201AE5D03E3340E656F1ED015
:100CE0000001B4510201AF5D09E305E10001B35118
:100CF0000201AE5D03E3310E656F10D00001B0510B
:100D00000201AF5D09E305E10001AF510201AE5DF3
:100D100003E3330E656F02D0350E656F6551355CA8
:100D200005E065C235F00101D8850201645104086F
:100D30001EE1AF51515C14E303E15050AE5D10E28F
:100D40000101D12BD8B4D22B5350D25D07E303E17C
:100D5000D151525C03E2D78FD26BD16B07D0020125
:100D6000310E396E0101D79FD26BD16B0201642B1A
:100D70006451040801E2646B036A6451C20FE96EB6
:100D8000010E0320EA6EEFCFB0F2B0C28CFF00D0AC
:100D900081B206D0AE6B0001FEDE0101D7870201F1
:100DA000000109DFA09AA19A05D00201AE6B0001F3
:100DB000F2DEA19A0101A19A0001AFEF04F081A037
:100DC00008D0896A8A6A01013B6B3C6BD56BD78975
:100DD0000001F292AFEF04F081B20DD0196AF2BEB9
:100DE000198EF29E0201AE6B0001D5DE19BEF28EA5
:100DF0000101D7870001F09056EF04F0196AF2BEA6
:100E0000198EF29E0201AE6B0001C5DE19BEF28E94
:100E10009D920F014C6B7E947D84A19A9E9200015D
:100E200056EF04F03B5031080BE1196AF2BE198EFF
:100E3000F29E010E0201AE6F0001ADDE19BEF28E10
:100E4000BADEA19AA08A7D947E9456EF04F0320E09
:100E5000356E0101D26BD16BD885A092A1920001B1
:100E600056EF04F00101D783ABB402D0ABA20DD092
:100E7000AB9EAB98AC9AB8868A0EAF6E000EB06E81
:100E8000A60EAC6E900EAB6E3F6BF294000156EF67
:100E900004F09EAAFED7AECFAAF20201AA510D0815
:100EA0001AE1036A01013F51DB0FE96E010E0320D5
:100EB000EA6EEF6A010EEA6E400EE96E010EE26E16
:100EC000DB0EE16EE752E6CFEEFFFCE13F6BD78130
:100ED00011D010D00201036A01013F51DB0FE96E0E
:100EE000010E0320EA6EAAC2EFFF3F2B3F517E089E
:100EF00001E23F6B9E9A000156EF04F053544120EB
:100F000025732025640D00005354412025732025AE
:100F1000640D00005354412025732025640D00000A
:100F20005354412025732025640D00005354412063
:100F300025732025640D000053544120257320257E
:100F4000640D00005354412025732025640D0000DA
:100F50005354412025732025640D00005354412033
:100F600025732025640D000053544120257320254E
:100F7000640D000053544520257320254C75202511
:100F80004C7520254C7520254C7520254C75202549
:100F9000752025642025752025752025750D0000F8
:100FA00053544520257320254C7520254C7520254C
:100FB0004C7520254C7520254C7520257520256401
:100FC0002025752025752025750D000053544120DE
:100FD00025732025640D00005354412025732025DE
:100FE000640D00004F4646202575200D0000535427
:100FF000412025732025640D00004154542025759F
:101000000D004154442025750D00414743202575AE
:101010002025750D0000564C54352025752025756A
:101020002025352E33660D00564C5433202575206F
:1010300025752025332E36662025332E36660D0085
:1010400054504D2025642025640D00005450472045
:1010500025640D0045564E202575202575202575E3
:101060000D00434D50202575200D00005052542096
:1010700025752025752025750D00434F4D202575BC
:10108000200D000041444320254C7520254C75203F
:10109000254C7520254C7520254C750D00004144CC
:1010A0005420257520254C750D0041445620256699
:1010B0000D0050544820254C7520254C7520254C9A
:1010C0007520254C750D0000564C472025752025B0
:1010D000752025750D00504F4D20254C7520254C51
:1010E00075200D005354412025732025640D000008
:1010F0005744542054455354200D00004C494E256C
:10110000752025332E36662025332E36662025336E
:101110002E3666200D004141412025332E366620B3
:1011200025332E36660D00004550520D0000564501
:101130005220494E444F4F522030372DEEEAF22DC7
:10114000313820202031393A35363A32310D00001D
:1011500053524E20254C750D0000545441202575E6
:10116000202575202564202564200D00455252203D
:1011700025750D005F5345540D00870ED56ECD6A61
:10118000CC6A080E0609BA6E480EBB6EB46A370EFA
:10119000B16E0F014D6B4E6B100E06094A6FC80EF3
:1011A0004B6F0001D8EF30F0C60E926E01013B6B21
:1011B0003BC189FF070E936E3C6B3CC18AFFD00E8A
:1011C000946EE20E3D6F3DC18BFF020E956E040ED4
:1011D0003E6F3EC18CFF9690968296849686C15053
:1011E000F00B0809C16E000E0F01386F060E3C6F40
:1011F000000E396F3A6F3B6F0001DAEF30F07CC2BE
:1012000080F27BC27FF202017EC203F07D51D8B42E
:101210007E077D07031027E07A517A2B816F80517A
:10122000036E7F517F2BD8B4802BE96E03C0EAFF99
:10123000EFCF82F2F250006EF29EAA6A81C2A9FF3D
:1012400082C2A8FFA69CA69EA6840F01550EA76E7B
:10125000AA0EA76EA682A6B2FED7A6940050F212DE
:101260000001D1D70201000112007CC280F27BC2D2
:101270007FF202017EC203F07D51D8B47E077D0764
:1012800003101AE08051036E7F517F2BD8B4802B5E
:10129000E96E03C0EAFF7A517A2B836FF2CF84F2B2
:1012A000F29EAA6A83C2A9FFA69CA69EA680A85009
:1012B00084BFF28EEF6EDED700011200550E4A6E2B
:1012C000060E4B6E320E4C6EFA0E4D6E320E4E6E98
:1012D000FA0E4F6E0B0E516EB80E506E536A140E0E
:1012E000526E340E546E4B0E556E320E566E7B0E91
:1012F0005A6E140E596E1E0E586E800E576E5E6A30
:101300005D6A5C6A5B6A020E5F6E606F050E616FFC
:101310000A0E656FD70E646F230E636F800E626FC7
:10132000E30E696FA50E686F1B0E676F790E666F0F
:10133000AE0E6D6F470E6C6FA30E6B6F840E6A6FEF
:10134000330E716F706F1B0E6F6F830E6E6F0A0E10
:10135000756FD70E746F230E736F790E726F796B82
:10136000786BD00E776F820E766F7D6B7C6B480E3C
:101370007B6F840E7A6F9E0E816FEF0E806F270E4B
:101380007F6F790E7E6F660E856F846F820E836F1E
:10139000830E826F9A0E896F990E886F560E876F33
:1013A000840E866FCD0E8D6FCC0E8C6F4C0E8B6FB6
:1013B000790E8A6F660E916F906FB60E8F6F830EE7
:1013C0008E6F956B946B120E936F850E926F330E2A
:1013D000996FC40E986F310E976F790E966F9A0EB3
:1013E0009D6F990E9C6FDD0E9B6F820E9A6FA16BA5
:1013F000A06B120E9F6F850E9E6F340EA56FF60EBA
:10140000A46F250EA36F7C0EA26FE60EA96FAC0E23
:10141000A86F6F0EA76F7B0EA66FAB6B010EAA6F46
:10142000180EB76FD80EB86F080EB96FDD0EBA6F11
:10143000080EBB6FE20EBC6F080EBD6FE70EBE6FED
:10144000080EBF6FEC0EC06F080EC16FF10EC26FB9
:10145000080EC36FF60EC46F070EC56FFB0EC66F86
:10146000060EC76FC86B050EC96FCA6F040ECB6F2F
:101470000A0ECC6F030ECD6F0F0ECE6F020ECF6F24
:10148000140ED06F010ED16F190ED26FD36B1E0EDA
:10149000D46FD569230ED66FFE0ED76F280ED86F86
:1014A000FD0ED96F2D0EDA6FFC0EDB6F320EDC6F86
:1014B000FB0EDD6F370EDE6FFA0EDF6F3C0EE06F56
:1014C000F90EE16F410EE26FF80EE36F460EE46F26
:1014D000F70EE56F4B0EE66FF50EE76F010EAC6F82
:1014E0000A0EAD6FAE6F090EB06F370EAF6F090EFB
:1014F000B46FD50EB36F0A0EB66FA70EB56F0B0E95
:10150000B26F110EB16F300E0101386F396F460E98
:101510003A6F4850016E4950036E01500201736FDB
:1015200003C074F2F2CF75F2F29E74C2AAFF73C2C6
:10153000A9FFA69CA69EA680A85075BFF28E55084E
:1015400002E1722D14D048C001F049C003F048C038
:1015500073F249C074F248C07AF27C6B4A0E7B6F1A
:101560007E6BF10E7D6F00014ADE13D0020148C090
:1015700001F049C003F048C073F249C074F248C09A
:101580007AF27C6B4A0E7B6F7E6BF10E7D6F0001F1
:101590006CDE120002019651D8B471D0006E9A51DF
:1015A000D8B46DD0002604E3810E002668E204D092
:1015B0007F0E005E64E363E097C29EF29B519E1B28
:1015C000978F9B8F99519D03F4CFA0F298519C0364
:1015D000F4CF03F0F3CF9FF29D03F350A027F45014
:1015E0009F23000E032299519C03F350A027F4502F
:1015F0009F23000E026A0322022297519D03F3509B
:101600009F27F4500322000E022297519C03F350AF
:101610000326F4500222000E016A012299519B0315
:10162000F3509F27F4500322000E0222012298510A
:101630009B03F3500326F4500222000E012297511F
:101640009B03F3500226F4500122002A01BE05D06C
:101650009F370336023601360006000E9FAF0AD0D0
:10166000032A02220122015005E1025003E1035046
:1016700001E1002A9EBF018E9EAF019E04D0006A48
:10168000016A026A036A000112008E0E006E9BC29C
:1016900001F09AC202F0036A015209E102C001F0AE
:1016A000026A080E005E015202E1006A08D0D8907A
:1016B00001BE04D0023601360006F9D7019E1200A1
:1016C000800ED8A202D002019F1B0201A46BA56B61
:1016D0009BC2A3F29F51A31B9A51D8B4DFD0A26F33
:1016E000006E9E51D8B4E3D0A25FD8B483D03EE35D
:1016F0009FC2A8F2A88FA0C2A7F2A1C2A6F2A56BB2
:10170000D890A833A733A633A533A22FF8D7A3AF19
:1017100003D0A481E0D0A491A291A489020EEA6E24
:101720009D0EE96EEBD0A499A3BF0AD0A2A113D05D
:10173000A833A733A633A533002AD8B4C7D00BD01B
:10174000A8BF0CD0D890A537A637A737A837000672
:10175000D8B4BCD0F5D7A48D6DD0A49D9BC2A3F204
:101760009BAF02D0A88FABD0A89FA9D09EC2A2F2F7
:101770009EC200F09A51A25F9BC2A8F2A88F9CC2A1
:10178000A7F29DC2A6F2A56BD890A833A733A633C3
:10179000A533A22FF8D7A3AF03D0A4839CD0A493E2
:1017A000A291A48B020EEA6EA10EE96EA7D0A49BB3
:1017B000A3BF0AD0A2A113D0A833A733A633A53361
:1017C000002AD8B483D00BD0A8BF0CD0D890A537AE
:1017D000A637A737A8370006D8B478D0F5D7A48F96
:1017E00029D0A49F9FC2A3F29FAF02D0A88F67D039
:1017F000A89F65D09FC2A8F2A88FA0C2A7F2A1C2DD
:10180000A6F2A3AF04D0A89FA48565D0A495A56B2C
:10181000A291020EEA6E9D0EE96E70D0A3BF1CD09D
:101820009BC2A3F2A2A106D0A833A733A633A53347
:10183000002A4CE0A5AF0BD0A62B09E1A72B07E1AE
:10184000A82B05E1A833A733A633002A3FE0A4BDA7
:1018500084D7A4BFC6D71CD0800EA81BA8AF04D0C5
:101860003AD09FC2A3F20AD09BC2A3F2A85306E1CA
:10187000A75304E1A65302E1006A21D0A8BF08D013
:10188000D890A537A637A737A837002EF7D71ED090
:10189000A3AF02D0A88F13D0A89F11D09EC200F092
:1018A0009FC2A8F2A0C2A7F2A1C2A6F208D09AC213
:1018B00000F09BC2A8F29CC2A7F29DC2A6F2A8C2E9
:1018C00001F0A7C202F0A6C203F034D0006A016A98
:1018D000026A036A2FD0A56BA61FA71FA81FA51F0A
:1018E000A52B05E1A62B03E1A72B01E1A82BA4B1B1
:1018F00012D7A4B354D7A4B589D7B3D7EF50A6272E
:1019000005E3A72B03E1A82BD8B4A281ED52EF5039
:10191000A72703E3A82BD8B4A281ED52EF50EFBE66
:1019200001D0800AA827D8B0A281A4B9FCD6A4BB54
:101930003ED774D70001120069C099F268C098F2CE
:1019400067C097F266C096F202019D6B9C6B9B6B21
:10195000810E9A6F00011EDE03C043F002C042F008
:1019600001C041F000C040F06DC099F26CC098F227
:101970006BC097F26AC096F202019D6B9C6B9B6BE9
:10198000810E9A6F000106DE03C075F202C074F288
:1019900001C073F200C072F202019B6B54C09AF254
:1019A000000173DE03C079F202C078F201C077F261
:1019B00000C076F2D88203C09DF202C09CF201C042
:1019C0009BF200C09AF20201A16BA06B200E9F6FE8
:1019D000840E9E6F000174DED89275C29DF274C2AF
:1019E0009CF273C29BF272C29AF203C0A1F202C0CF
:1019F000A0F201C09FF200C09EF262DE03C047F079
:101A000002C046F001C045F000C044F01200020ED2
:101A1000EA6E760EE96EEF5011E0140E016EBF0E05
:101A2000006E0400002EFDD7012EF9D7BF0E006E08
:101A3000002EFED700000400EF2EEFD712008B928D
:101A4000C950C96AC730FEE3C9CF72F2C950C96A2A
:101A5000C730FEE3C9CF73F28B8272C275F273C2D4
:101A600074F202017531776F7431766F77337633A4
:101A7000773376337733763377337633773376331A
:101A800077337633010E771776C2D6F10101000164
:101A9000120097C29EF202019B519E1B9EAF05D081
:101AA000D894D89097BFD8802FD097C29EF29AC270
:101AB0009FF296519F5F06E09EAF26D0D850010A54
:101AC000D86E22D09BC29FF297519F5F06E09EAFD7
:101AD0001BD0D850010AD86E17D09CC29FF29851E3
:101AE0009F5F06E09EAF10D0D850010AD86E0CD090
:101AF0009DC29FF299519F5F06E09EAF05D0D850DE
:101B0000010AD86E01D0D890000112008E0E006E2E
:101B100002019651005E97C202F098C201F0028E57
:101B2000005209E0D890025202E1015204E0023270
:101B30000132002EF7D797AF05D0011E021E012AF1
:101B4000D8B4022A000112000201959189C28EF2D6
:101B500088C28DF287C28CF286C28BF289C299F25A
:101B600088C298F287C297F286C296F29D6B9C6BF0
:101B70009B6B9A6B00018DDF06E3020195818C510E
:101B8000800A8C6F00018EC299F28DC298F28CC2CD
:101B900097F28BC296F202019D6B9C6B9B6B8E0E33
:101BA0009A6F000176DF01E217E18EC299F28DC2D1
:101BB00098F28CC297F28BC296F2A8DF02C09BF219
:101BC00001C09AF262DD03C092F202C091F201C03C
:101BD00090F200C08FF2C7D08EC299F28DC298F2F7
:101BE0008CC297F28BC296F2800E02019D6F960E08
:101BF0009C6F180E9B6F960E9A6F00014ADFD8A05B
:101C0000AAD08EC299F28DC298F28CC297F28BC282
:101C100096F202019D6B9C6B9B6B700E9A6F00019C
:101C2000B9DC03C099F202C098F201C097F200C07B
:101C300096F26CDF02C094F201C093F28EC299F268
:101C40008DC298F28CC297F28BC296F202019D6B04
:101C50009C6B9B6B700E9A6F00019CDC03C099F229
:101C600002C098F201C097F200C096F294C29BF2B3
:101C700093C29AF20ADDD88299C29DF298C29CF270
:101C800097C29BF296C29AF203C0A1F202C0A0F2E0
:101C900001C09FF200C09EF213DD0201996B986BA8
:101CA000976B8E0E966F03C09DF202C09CF201C02E
:101CB0009BF200C09AF200016DDC03C08EF202C0FC
:101CC0008DF201C08CF200C08BF294C29BF293C2E1
:101CD0009AF2DBDC0201996B986B976B8E0E966F14
:101CE00003C09DF202C09CF201C09BF200C09AF2B8
:101CF000000150DC03C092F202C091F201C090F2E8
:101D000000C08FF28EC299F28DC298F28CC297F207
:101D10008BC296F2FBDE02C09BF201C09AF2B5DCE8
:101D2000D89292C29DF291C29CF290C29BF28FC255
:101D30009AF203C0A1F202C0A0F201C09FF200C05B
:101D40009EF2BEDC03C092F202C091F201C090F29A
:101D500000C08FF208D08EC292F28DC291F28CC276
:101D600090F28BC28FF28EC299F28DC298F28CC221
:101D700097F28BC296F2CADE02C09BF201C09AF2C1
:101D800084DCD8828EC29DF28DC29CF28CC29BF202
:101D90008BC29AF203C0A1F202C0A0F201C09FF26E
:101DA00000C09EF28DDC03C08EF202C08DF201C035
:101DB0008CF200C08BF2020195A103D09051800AF1
:101DC000906F8EC299F28DC298F28CC297F28BC23C
:101DD00096F29D6B9C6B9B6B9A6B00015ADE3AE00E
:101DE000020195A11BD08A5319E1D88292C29DF2BB
:101DF00091C29CF290C29BF28FC29AF2A16BA06B2F
:101E00009F6B7F0E9E6F00015BDC03C092F202C0ED
:101E100091F201C090F200C08FF2020195B11BD087
:101E20008A2D19D0D89292C29DF291C29CF290C292
:101E30009BF28FC29AF2A16BA06B9F6B7F0E9E6F7D
:101E400000013EDC03C092F202C091F201C090F2A8
:101E500000C08FF2020189C299F288C298F287C24B
:101E600097F286C296F29D6B9C6B9B6B9A6B0001FE
:101E700010DE06E10201926B916B906B8F6B00019B
:101E80008FC200F090C201F091C202F092C203F042
:101E9000120085C289F284C288F283C287F282C2AC
:101EA00086F2010E02018A6F00014EDE85EF0FF00F
:101EB00085C289F284C288F283C287F282C286F226
:101EC00002018A6B000140DE8FEF0FF07FC203F04A
:101ED00002017EC280F27FC281F27DC299F27CC291
:101EE00098F27BC297F27AC296F29D6B9C6B9B6BC9
:101EF0009A6B0001CEDD0AE37DC285F27CC284F2DA
:101F00007BC283F27AC282F2C4D709D07DC285F245
:101F10007CC284F27BC283F27AC282F2C9D781C2C8
:101F2000EAFF80C2E9FF00C0EFFF01C0ECFF02C082
:101F3000ECFF03C0ECFF7FC203F002017EC2E9FFA9
:101F40007FC2EAFFEFCF00F0ECCF01F0ECCF02F060
:101F5000ECCF03F0EACF81F2E9CF80F2D8827DC2E4
:101F60009DF27CC29CF27BC29BF27AC29AF203C0C1
:101F7000A1F202C0A0F201C09FF200C09EF20001D7
:101F800060EC0BF081C2EAFF80C2E9FF4DEF10F078
:101F9000C66A8B9AD89002017A377B6B7B51060810
:101FA00012E3D8907A3702E28B9A01D08B8A010E25
:101FB0007C6F7C2FFED78B86010E7C6F7C2FFED72B
:101FC0008B967B2BEBD78B9A8B84020E7C6F7C2FAE
:101FD000FED78B94C69A210EC66E000EC76E000106
:101FE00012000201696BC8C16BF2C7C16AF201013C
:101FF000D8B7AAD06BC29BF26AC29AF2000145EC34
:102000000BF003C07DF202C07CF201C07BF200C085
:102010007AF203C099F202C098F201C097F200C0B0
:1020200096F243C09DF242C09CF241C09BF240C078
:102030009AF2CAEC0AF003C07DF202C07CF201C041
:102040007BF200C07AF2D89203C09DF202C09CF2EB
:1020500001C09BF200C09AF247C0A1F246C0A0F2B4
:1020600045C09FF244C09EF260EC0BF003C079F2D1
:1020700002C078F201C077F200C076F279C27DF238
:1020800078C27CF277C27BF276C27AF2020E02014B
:102090007F6F6E0E7E6F000119D703C075F202C00C
:1020A00074F201C073F200C072F275C299F274C288
:1020B00098F273C297F272C296F202019D6B9C6B0A
:1020C0009B6B7E0E9A6F0001E4DC0CE371C299F207
:1020D00070C298F26FC297F26EC296F217DD01C01D
:1020E00068F21DD0D89271C29DF270C29CF26FC28C
:1020F0009BF26EC29AF20201A16BA06B9F6B7F0EE6
:102100009E6F000160EC0BF003C099F202C098F2E0
:1021100001C097F200C096F2F9DC01C068F202013A
:102120006B510001B05D0CE308E1AF5102016A5D43
:10213000D8A002D0000104D0000162C268F202D02F
:1021400068C262F206D0010154C068F268C262F24D
:1021500000010101D8B955D0D6C16CF202016D6BF6
:10216000D8906D35036AB80FE96E000E0320EA6E51
:10217000EF50800A006E6C51800A005C17E3D89023
:102180006D35036A6E0F7A6F000E03207B6F010EB0
:102190007A25016E000E7B21036E01504A0FE96E15
:1021A000000E0320EA6EEFCF69F209D06D2B6D515E
:1021B0000001B75DD8A002D00201D2D70201000110
:1021C000B75102016D5D1CE1010E0001B75D006EAB
:1021D000D89000360050036A6E0F02017A6F000E2D
:1021E00003207B6F010E7A25016E000E7B21036EAA
:1021F00001504A0FE96E000E0320EA6EEFCF69F23C
:1022000001010201695168253F6E3F507F0802E2DB
:102210007F0E3F6E3FC07AF20001BADE1200090065
:10222000F6CF82F2F7CF83F2F5509EA8FED7AD6EBF
:1022300082C2F6FF83C2F7FF0201812F01D002D0D4
:102240000001EDD700011200EF5210E0EACF73F267
:10225000E9CF72F2EF509EA8FED7AD6E73C2EAFFCF
:1022600072C2E9FFE92AD8B4EA2AEED712000201C5
:102270008451016A835D03E283C200F00CD0006ADE
:10228000080E856F833700368451005CD8B0006E2D
:102290000136852FF7D700011200200E020177A921
:1022A000300E786F76C200F076AF08D0001E002A9C
:1022B00000C076F22D0E786F778F7781015076C24D
:1022C00083F2640E846F0001D2DF00C076F2300E1C
:1022D00001240201796F76C283F20A0E846F000135
:1022E000C6DF300E002402017B6F300E01247A6FAE
:1022F00078C200F0300E795D04E0778377BF778590
:1023000012D078C279F2200E786F300E7A5D04E038
:10231000778177BF778307D0D8A4778104E179C22A
:102320007AF2200E796F77B505D077B307D077B101
:1023300009D00CD078519EA8FED7AD6E79519EA8D9
:10234000FED7AD6E7A519EA8FED7AD6E7B519EA88A
:10235000FED7AD6E000112007AC201F079C200F022
:102360000066012A0900F5CFEEFF002EFBD7012EF3
:10237000F9D7F86A12000201765302E177535BE065
:10238000F86A73C2F7FF72C2F6FF020EEA6E780EA9
:10239000E96E7A6B010E796F0001DEDF75C203F022
:1023A00002017451E96E03C0EAFFEF50785D1EE050
:1023B000F86A73C2F7FF72C2F6FF020EEA6E780E79
:1023C000E96E7A6B010E796F0001C6DF75C203F00A
:1023D00002017451E96E03C0EAFFEF50785D02E23A
:1023E000FF0E01D0010E016E28D014D0F86A73C21E
:1023F000F7FF72C2F6FF020EEA6E780EE96E7A6B94
:10240000010E796F0001A8DF0201785303E1000E8D
:10241000016E13D073C203F07251722BD8B4732BB8
:1024200075C203F07451742BD8B4752B7651D8B49F
:1024300077077607A1D7000E016E00011200015048
:1024400081C283F2640E0201846F000110DF00C0BC
:1024500081F20150300E08E1020182A30ED082B752
:102460000CD082B9200E04D0020182978299828119
:10247000012601509EA8FED7AD6E81C283F20A0EDE
:10248000846F0001F4DE00C081F20150300E08E1DB
:10249000020182B70BD082A109D082B9200E0001BF
:1024A000012601509EA8FED7AD6E0201300E812795
:1024B00081519EA8FED7AD6E0001120075C203F0D7
:1024C000020174C2E9FF75C2EAFF7651EF5C12E0C7
:1024D00075C203F074C2E9FF75C2EAFFEF5204E16E
:1024E000000E016E026E0AD0742BD8B4752B000159
:1024F000E5D7020174C201F075C202F000011200BA
:1025000072C23DF03A50300803E1300E3B6E09D004
:102510000101DA5303E172C23BF002D0300E3B6E90
:1025200000011200006A016A02017F51D89080B157
:1025300000260032013280B300260032013280B51D
:1025400000260032013280B700260032013280B905
:1025500000260032013280BB00260032013280BDED
:1025600000260032013280BF002600320132000115
:1025700022EF13F002017D6B7B6B0A0E7C6F7A6B8E
:102580007851791103E1000E016EBBD07D517D2B96
:102590007825E96E000E7921EA6EEFCF7EF27E514A
:1025A0002D080CE1010E7B6F7D517D2B7825E96EA6
:1025B000000E7921EA6EEFCF7EF20CD07E512B080F
:1025C00009E17D517D2B7825E96E000E7921EA6EB7
:1025D000EFCF7EF27E512F08D8B08BD07E513908D4
:1025E000D8A087D07E5130081EE17D517825E96E54
:1025F000000E7921EA6EEF50780809E07D517825C8
:10260000E96E000E7921EA6EEF5058080CE1100EC9
:102610007C6F7D2B7D517D2B7825E96E000E792115
:10262000EA6EEFCF7EF27C510A081CE17E512F0842
:1026300018E27E51390815E30A0E7F6F7AC280F2E4
:10264000000170D7300E02017E5D01247A6F7D514A
:102650007D2B7825E96E000E7921EA6EEFCF7EF2B0
:10266000E5D747D07C51100844E17E51600806E26E
:102670007E517A0803E37E51DF0B01D07E517E6FDD
:102680007E512F0803E27E51390806E27E51400850
:1026900030E27E5146082DE37E512F080CE27E5138
:1026A000390809E37A397F6FF00E7F17300E7E5DAF
:1026B0007F257A6F09D07A397F6FF00E7F17410E30
:1026C0007E5D0A0F7F257A6F7D517D2B7825E96E1F
:1026D000000E7921EA6EEFCF7EF27E51600806E2AD
:1026E0007E517A0803E37E51DF0B01D07E517E6F6D
:1026F000C7D77B2D04D07C510A0801E17A6D7AC2DC
:1027000001F00001120002018B51D8B4A5D0976FDF
:102710008F51D8B4A1D0975F05E37F0E9727D8B02B
:102720009BD006D0810E975FD8A096D0D8B494D015
:1027300097C200F0016A026A036A966B8CC295F236
:10274000958F8DC294F28EC293F2190E976F9251AB
:10275000935F0DE2010E945F0AE2955F08E2965FD7
:1027600006E2962B952B942B9251932728D09151CA
:10277000945F12E2010E955F0FE2965F0DE2962BD9
:10278000952B915194279251932719E3942B17E19C
:10279000952B15E1962B13D090518009955F0EE291
:1027A000010E965F0BE2962B90518009952791516F
:1027B0009427E9E3952BE7E1962BE5D70380972F44
:1027C00001D00BD0D8909337943795379637D8905F
:1027D0000336023601369837BAD798A106D0D8907A
:1027E000013202320332983302D0000635E098BF3E
:1027F0001ED0D89093379437953796379251935F80
:1028000007E2010E945F04E2955F02E2965F1AE32D
:102810009151945F05E2010E955F02E2965F12E32B
:1028200090518009955F03E2010E965F0BE3032A46
:1028300009E1022A07E1012A05E1002A0DE001323F
:10284000023203328CC297F29051971B97AF02D09D
:10285000018E06D0019E04D0006A016A026A036AF2
:102860000001B6EF14F002017F6B7E6B7D6B7F0E73
:102870007C6F836B826B816B806B84818493849586
:10288000866B7851791105E1006A016A026A036A70
:1028900014D18651862B7825E96E000E7921EA6ED7
:1028A000EFCF85F28553D8B4CAD084A10FD085511B
:1028B00020080CE0849185512B0803E18493B3D068
:1028C00005D085512D0802E18483ADD084B107D0B5
:1028D00085512E0804E184B502D08485A4D084B14A
:1028E0009FD085512F08D8B09BD085513908D8A0EA
:1028F00097D0300E855F84A556D07FC299F27EC2F4
:1029000098F27DC297F27CC296F29D6B9C6B200E72
:102910009B6F820E9A6F0001CAEC0AF003C07FF22F
:1029200002C07EF201C07DF200C07CF202019B6B0E
:1029300085C29AF2000145EC0BF003C08AF202C096
:1029400089F201C088F200C087F203C08EF202C093
:102950008DF201C08CF200C08BF27FC292F27EC277
:1029600091F27DC290F27CC28FF2CDD6D89283C212
:102970009DF282C29CF281C29BF280C29AF203C095
:10298000A1F202C0A0F201C09FF200C09EF260EC72
:102990000BF003C083F202C082F201C081F200C0DA
:1029A00080F23CD00201996B986B200E976F820EDB
:1029B000966F83C29DF282C29CF281C29BF280C25A
:1029C0009AF20001CAEC0AF003C08AF202C089F24E
:1029D00001C088F200C087F202019B6B85C29AF2A7
:1029E000000145EC0BF0D8928AC29DF289C29CF29C
:1029F00088C29BF287C29AF203C0A1F202C0A0F281
:102A000001C09FF200C09EF260EC0BF003C083F2A5
:102A100002C082F201C081F200C080F205D0020142
:102A200084B101D00CD0000102018651862B78259B
:102A3000E96E000E7921EA6EEFCF85F233D784A3D9
:102A40001AD0996B986B800E976F7F0E966F83C22A
:102A50009DF282C29CF281C29BF280C29AF2000176
:102A6000CAEC0AF003C083F202C082F201C081F214
:102A700000C080F202017A517B1117E086530CE00E
:102A800086077AC2E9FF7BC2EAFF86517825EF6E9E
:102A9000000E7921EC6E09D07AC2E9FF7BC2EAFF11
:102AA00079C2ECFFED5278C2EFFF80C200F081C224
:102AB00001F082C202F083C203F0000112000201A1
:102AC0008E51B6088E6F036A8FC292F28F8FD890A4
:102AD0008F339033913303320232013200328E2F22
:102AE000F6D792AF0BD0001E011E021E031E002A55
:102AF000D8B4012AD8B4022AD8B4032A0001F7EFC7
:102B000015F0D8B204D0020EEA6E960EE96E006A95
:102B1000016A026A036A0201966B976B986B996B64
:102B200095519411931192112CE0200E9A6FD89028
:102B30008E378F3790379137963797379837993741
:102B40009551995D08E19451985D05E19351975D28
:102B500002E19251965D0FE39251965F9351D8A096
:102B6000933D975F9451D8A0943D985F9551D8A01C
:102B7000953D995FD88000360136023603369A2F8C
:102B8000D6D796C2EFFF97C2ECFF98C2ECFF99C26E
:102B9000ECFF00011200E9500201866F8551886F39
:102BA0001CE084C299F283C298F282C297F281C279
:102BB00096F29D6B9C6B200E9B6F820E9A6F0001AC
:102BC000CAEC0AF003C084F202C083F201C082F2B0
:102BD00000C081F20201882FE4D784C291F283C23F
:102BE00090F282C28FF281C28EF2000168D703C0D8
:102BF00084F202C083F201C082F200C081F20201BD
:102C000084AF0DD08607868B811F821F831F841F90
:102C1000812BD8B4822BD8B4832BD8B4842B3B0E11
:102C20008D6F9A0E8C6FCA0E8B6F8A6B0A0E886F2F
:102C30008551D8B4862BD882020EEA6E810EE96ED9
:102C400084C291F283C290F282C28FF281C28EF26C
:102C50008DC295F28CC294F28BC293F28AC292F228
:102C600000014FDF0150005213E102018529885D08
:102C7000D8A402D000010CD086510DE00F0B885D66
:102C800001E03CE286BF3AD086BD05D0200E31D0AF
:102C9000200E0201861786AB0DD0869B8551D8A4E5
:102CA00086070050866F2D0E9EA8FED7AD6E86510A
:102CB000006E866B8551885D0BE10050866F2E0E8D
:102CC0009EA8FED7AD6E8651006E200E8617000EB0
:102CD000300E86AB0ED0869B8551D8A48607005057
:102CE000866F2D0E9EA8FED7AD6E8651006E866B48
:102CF000300E002600509EA8FED7AD6ED8928DC231
:102D000091F28CC290F28BC28FF28AC28EF2956BD6
:102D1000946B936B0A0E926F0001F3DE03C08DF289
:102D200002C08CF201C08BF200C08AF20201882F2F
:102D300082D700011200EACF7AF2E9CF79F20201DC
:102D40007339F009756F7527E20F766F320F786F60
:102D500073510F0B762776277827E90F776F772740
:102D6000772772390F0B7727782777377837781FCF
:102D7000783772510F0B78277537070E746F0A0E6C
:102D800077077827FDE376077727FDE37507762732
:102D9000FDE374077527FDE3020EEA6E740EE96E1B
:102DA000070E7915799DE926000EEA22E950780888
:102DB00004E1EA50020801E1798DEF50006E08E16C
:102DC00079BD06D079B90CD079B702D0200E03D0E6
:102DD00079877999300E002600509EA8FED7AD6EF7
:102DE000EE5079ADE3D700011200036A020172517F
:102DF000C20FE96E010E0320EA6EEFCF73F273C2C9
:102E00008CFF020E766F000107EC0DF08C946F5072
:102E10006F6A6D30FEE36FCFB0F26F506F6A6D3046
:102E2000FEE36FCFB1F28C840201B051070BB36F98
:102E3000B1C2B2F2B0B702D0080EB327B2C201F0ED
:102E4000B3C202F002500001EDEF23F002017D5108
:102E50007F19800B816F7DAF05D07C1F7D1F7C2B80
:102E6000D8B47D2B7FAF05D07E1F7F1F7E2BD8B4BB
:102E70007F2B7C517E03F3CF01F0F4CF00F07F0372
:102E8000F35000267D517E03F3500020026E81AF87
:102E900005D0011E021E012AD8B4022A0001BEEF8D
:102EA00017F002017A6B786B0A0E796F776B766B8D
:102EB0007451751104E1000E016E026EE2D07A5178
:102EC0007A2B7425E96E000E7521EA6EEFCF7BF246
:102ED0007B512D080CE1010E786F7A517A2B742505
:102EE000E96E000E7521EA6EEFCF7BF20CD07B51BC
:102EF0002B0809E17A517A2B7425E96E000E7521B1
:102F0000EA6EEFCF7BF27B512F08D8B0ACD07B516B
:102F10003908D8A0A8D07B5130081EE17A51742519
:102F2000E96E000E7521EA6EEF50780809E07A51DB
:102F30007425E96E000E7521EA6EEF5058080CE119
:102F4000100E796F7A2B7A517A2B7425E96E000E68
:102F50007521EA6EEFCF7BF279510A0822E17B51AD
:102F60002F081EE27B5139081BE37D6B0A0E7C6F34
:102F700077C27FF276C27EF2000168D7300E02017E
:102F80007B5D0124766F000E0220776F7A517A2BD9
:102F90007425E96E000E7521EA6EEFCF7BF2DFD764
:102FA00062D0795110085FE17B51600806E27B51E5
:102FB0007A0803E37B51DF0B01D07B517B6F7B51A0
:102FC0002F0803E27B51390806E27B5140084BE2AF
:102FD0007B51460848E37B512F081AE27B513908A0
:102FE00017E376357C6F77357D6F7C377D377C379F
:102FF0007D377C377D37F00E7C17300E7B5D7C256E
:10300000016E000E7D21036E01C076F2776F16D03F
:1030100076357C6F77357D6F7C377D377C377D37B4
:103020007C377D37F00E7C17410E7B5D0A0F7C25C7
:10303000016E000E7D2101C076F2776F7A517A2BF6
:103040007425E96E000E7521EA6EEFCF7BF27B519D
:10305000600806E27B517A0803E37B51DF0B01D065
:103060007B517B6FACD779510A0807E1782D05D0E9
:10307000761F771F762BD8B4772B76C201F077C2F4
:1030800002F0000112000900F5520DE0F6CF72F2D5
:10309000F7CF73F2F5509EA8FED7AD6E72C2F6FF61
:1030A00073C2F7FFF0D71200020172517403F3CF1D
:1030B00001F0F4CF00F07503F35000267351740350
:1030C000F3500020026E000112000201716B040037
:1030D0007369FC0E726F010E756F400E746F776B23
:1030E000030E766F0001BBEC11F00152D8A4AFD1F2
:1030F000010143513F08D8B46AD143C172F244C1BF
:1031000073F235C074F202017351300802E1000E0F
:1031100001D0010E7591E8B075817251410824E12A
:103120007351300805E1300E3A6E3C6E3B6E1CD098
:103130007351310816E1310E3C6E0101DA5306E19C
:103140003650310803E13850300803E161C0DAF14C
:1031500013D1310E3A6E3D50310802E1310E3B6E13
:1031600002D0010109D102017251310A000110E0BF
:10317000030A1BE0010A26E0070A31E0010A3CE0ED
:10318000030A47E0660A52E0110AD8B477D0AED0FD
:1031900001013B97D591020175A102D00101D581B2
:1031A0000101D5A101D03B87A2D001013B91D5936C
:1031B000020175A102D00101D5830101D5A301D07F
:1031C0003B8195D001013C9FD595020175A102D0AC
:1031D0000101D5850101D5A501D03C8F88D0010121
:1031E0003C9DD597020175A102D00101D58701014F
:1031F000D5A701D03C8D7BD001013C9BD599020124
:1032000075A102D00101D5890101D5A901D03C8B5E
:103210006ED001013C99D59B020175A102D001013C
:10322000D58B0101D5AB01D03C8961D001013B9721
:103230003B913C9F3C9D020175A102D001013C8D58
:1032400001013CAD01D03C8F3CAF01D03B813BA1A3
:1032500001D03B87D591D593D595D597020175A11E
:1032600002D00101D5870101D5A701D0D585D5A50B
:1032700001D0D583D5A301D0D58139D001013B97A9
:103280003B913C9F3C9D3C9B3C99020175A102D027
:1032900001013C8901013CA901D03C8B3CAB01D030
:1032A0003C8D3CAD01D03C8F3CAF01D03B813BA17C
:1032B00001D03B87D591D593D595D597D599D59BF9
:1032C000020175A102D00101D58B0101D5AB01D05E
:1032D000D589D5A901D0D587D5A701D0D585D5A5C4
:1032E00001D0D583D5A301D0D58101D00101F29CB5
:1032F000F29EF2BEFDD7196AF2BE198EF29E02014D
:10330000AE6B0001CBEC05F019BEF28E02017351D9
:10331000300806E17251410803E101013B990201C5
:103320003BC189FF320E766F000107EC0DF03BC107
:1033300089FF3CC18AFF04000A0E0201766F00017A
:1033400007EC0DF002017351310803E101013B89E3
:1033500002013BC189FF0A0E766F000107EC0DF0F8
:1033600074C235F00101D895A19A9E92A1927E94E3
:10337000F292F090C00EF2124351410828E14451FC
:10338000385D25E044C138F1EE0E4824016E000E90
:103390004920036E01500201726F03C073F2F250B4
:1033A000006EF29E73C2AAFF72C2A9FF38C1A8FFC5
:1033B000A69CA69EA6840F01550EA76EAA0EA76E08
:1033C000A682A6B2FED7A6940050F2120101435184
:1033D000410821E1D80EF66E0F0EF76E040E0201C1
:1033E000816F00010FEC11F0EA6A350EE96E24ECF2
:1033F00011F0200E9EA8FED7AD6ED6C176F2180E43
:103400000201776F00014DEC11F00D0E9EA8FED762
:10341000AD6E1BD00101E40EF66E0F0EF76E040EBA
:103420000201816F00010FEC11F0D5C181F21B0E7A
:103430000201826F00011FEC12F0200E9EA8FED741
:10344000AD6E0D0E9EA8FED7AD6E7FEF2EF0020181
:103450007369F80E726F010E756F400E746F776BA3
:10346000030E766F0001BBEC11F00152D8A483D09B
:10347000010E0201756F400E746F200E766F000111
:103480005EEC12F002C070F201C06FF2010E020198
:103490006F25016E000E702101C0E9FFEA6EEFCFCB
:1034A0006CF26C51300803E06C51310862E16CC27F
:1034B00072F2000180EC12F002016A6B696B6A51D2
:1034C00013080EE303E1695187080AE30400040EC0
:1034D000006E002EFED700D0692BD8B46A2BEFD730
:1034E000EE0EF66E0F0EF76E040E816F00010FECFC
:1034F00011F0EA6A350EE96E24EC11F0200E9EA858
:10350000FED7AD6ED6C176F2180E0201776F0001BC
:103510004DEC11F00D0E9EA8FED7AD6E02016C5160
:103520000101395D25E06CC239F1EF0E4824016ECE
:10353000000E4920036E01500201726F03C073F246
:10354000F250006EF29E73C2AAFF72C2A9FF39C187
:10355000A8FFA69CA69EA6840F01550EA76EAA0ED4
:10356000A76EA682A6B2FED7A6940050F212010161
:10357000020180EF2EF002017369F40E726F010EEA
:10358000756F400E746F776B030E766F0001BBECA6
:1035900011F0015277E1010143513F0843E0010E70
:1035A0000201756F400E746F200E766F00015EECA5
:1035B00012F002C070F201C06FF2010E02016F251D
:1035C000726F000E7021736F796F72C278F2000112
:1035D000BAEC12F001C054F00A0E4824016E000E3D
:1035E0004920036E01500201726F03C073F2F25062
:1035F000006EF29E73C2AAFF72C2A9FF54C0A8FF58
:10360000A69CA69EA6840F01550EA76EAA0EA76EB5
:10361000A682A6B2FED7A6940050F21200019CEC3E
:103620000CF001010A0E4824016E000E4920036EC1
:1036300001500201726F03C073F2F2CF74F2F29E76
:1036400073C2AAFF72C2A9FFA69CA69EA680A8501C
:1036500074BFF28E546EFA0EF66E0F0EF76E040EF5
:10366000816F00010FEC11F054C081F21B0E0201BA
:10367000826F00011FEC12F00D0E9EA8FED7AD6EFA
:103680007FEF2EF002017369F00E726F010E756FFD
:10369000400E746F776B030E766F0001BBEC11F078
:1036A00001523EE1010143513F0822E0010E0201B7
:1036B000756F400E746F200E766F00015EEC12F095
:1036C00002C070F201C06FF2010E02016F25726F2D
:1036D000000E7021736F796F72C278F20001BAEC3C
:1036E00012F001C03FF03FC07AF2C8EC0FF00101C8
:1036F000020EF66E100EF76E040E0201816F0001CD
:103700000FEC11F03FC081F21B0E0201826F00012D
:103710001FEC12F00D0E9EA8FED7AD6E7FEF2EF0BF
:1037200002017369EC0E726F010E756F400E746FBB
:10373000776B030E766F0001BBEC11F001526BE169
:10374000010143513F0839E0010E0201756F400E3F
:10375000746F200E766F00015EEC12F002C070F202
:1037600001C06FF2010E02016F25016E000E702183
:10377000036E01C0E9FFEA6EEF50300804E1010179
:10378000D88709D002013550320803E10101D887FA
:1037900002D00101D897020E02016F25016E000EC2
:1037A0007021036E01C0E9FFEA6EEF50300803E1BB
:1037B0000101D88902D00101D899000ED8A7010EC5
:1037C0000201726F000E0101D8A9010E0201736F90
:1037D0000A0EF66E100EF76E040E816F00010FECEC
:1037E00011F072C281F21B0E0201826F00011FEC08
:1037F00012F0200E9EA8FED7AD6E73C281F21B0E92
:103800000201826F00011FEC12F00D0E9EA8FED780
:10381000AD6E7FEF2EF002017369E80E726F010E3C
:10382000756F400E746F776B030E766F0001BBEC03
:1038300011F00152D8A464D2010143513508D8A433
:1038400002D144513F08D8B4C6D0010E0201756FB1
:10385000400E746F200E766F00015EEC12F002C015
:1038600070F201C06FF2010E02016F25726F000E3F
:103870007021736F796F72C278F20001BAEC12F0A6
:1038800001C04EF0010E02016F25726F000E702113
:10389000736F756F72C274F2200E766F00015EEC6A
:1038A00012F002C070F201C06FF2010E02016F252A
:1038B000726F000E7021736F796F72C278F200011F
:1038C000BAEC12F001C04FF0010E02016F25726FC9
:1038D000000E7021736F756F72C274F2200E766FD6
:1038E00000015EEC12F002C070F201C06FF2010E36
:1038F00002016F25726F000E7021736F796F72C2B3
:1039000078F27B6B7A6B000133EC14F003C065F046
:1039100002C064F001C063F000C062F0040E4824ED
:10392000016E000E4920036E01500201726F03C048
:1039300073F2F250006EF29E73C2AAFF72C2A9FF28
:103940004EC0A8FFA69CA69EA6840F01550EA76E8A
:10395000AA0EA76EA682A6B2FED7A6940050F212B7
:10396000050E4824016E000E4920036E015002012D
:10397000726F03C073F2F250006EF29E73C2AAFF20
:1039800072C2A9FF4FC0A8FFA69CA69EA6840F01E5
:10399000550EA76EAA0EA76EA682A6B2FED7A69453
:1039A0000050F212180E4824016E000E4920036EDA
:1039B00001C072F20201736F756B620E746F01C009
:1039C0007AF275C27CF27B6F7E6B040E7D6F000114
:1039D000FFEC08F00101160EF66E100EF76E050EE4
:1039E0000201816F00010FEC11F04EC081F21B0E3D
:1039F0000201826F00011FEC12F0200E9EA8FED77C
:103A0000AD6E4FC081F21B0E0201826F00011FECF0
:103A100012F0200E9EA8FED7AD6E040EE96E65C0B2
:103A200084F264C083F263C082F262C081F2030E4A
:103A30000201856F0001CBEC15F00D0E9EA8FED79C
:103A4000AD6E5BD1010143513308D8A457D1445125
:103A50003F08D8B408D1010E0201756F400E746F93
:103A6000200E766F00015EEC12F002C070F201C011
:103A70006FF2010E02016F25726F000E7021736FDD
:103A8000796F72C278F20001BAEC12F001C04CF00A
:103A9000010E02016F25726F000E7021736F756F3A
:103AA00072C274F2200E766F00015EEC12F002C05A
:103AB00070F201C06FF2010E02016F25726F000EED
:103AC0007021736F796F72C278F20001BAEC12F054
:103AD00001C04DF0010E02016F25726F000E7021C2
:103AE000736F756F72C274F2200E766F00015EEC18
:103AF00012F002C070F201C06FF2010E02016F25D8
:103B0000726F000E7021736F796F72C278F27B6BE7
:103B10007A6B000133EC14F003C0A5F002C0A4F0EE
:103B200001C0A3F000C0A2F0010E02016F25726F68
:103B3000000E7021736F756F72C274F2200E766F73
:103B400000015EEC12F002C070F201C06FF2010ED3
:103B500002016F25726F000E7021736F796F72C250
:103B600078F27B6B7A6B000133EC14F003C0A9F0A0
:103B700002C0A8F001C0A7F000C0A6F0020E4824C1
:103B8000016E000E4920036E01500201726F03C0E6
:103B900073F2F250006EF29E73C2AAFF72C2A9FFC6
:103BA0004CC0A8FFA69CA69EA6840F01550EA76E2A
:103BB000AA0EA76EA682A6B2FED7A6940050F21255
:103BC000030E4824016E000E4920036E01500201CD
:103BD000726F03C073F2F250006EF29E73C2AAFFBE
:103BE00072C2A9FF4DC0A8FFA69CA69EA6840F0185
:103BF000550EA76EAA0EA76EA682A6B2FED7A694F1
:103C00000050F212580E4824016E000E4920036E37
:103C100001C072F20201736F756BA20E746F01C066
:103C20007AF275C27CF27B6F7E6B040E7D6F0001B1
:103C3000FFEC08F05C0E4824016E000E4920036E74
:103C400001C072F20201736F756BA60E746F01C032
:103C50007AF275C27CF27B6F7E6B040E7D6F000181
:103C6000FFEC08F00101280EF66E100EF76E050E3F
:103C70000201816F00010FEC11F04CC081F21B0EAC
:103C80000201826F00011FEC12F0200E9EA8FED7E9
:103C9000AD6E4DC081F21B0E0201826F00011FEC60
:103CA00012F0200E9EA8FED7AD6E890EE96EA5C05B
:103CB00084F2A4C083F2A3C082F2A2C081F2060EF5
:103CC0000201856F0001CBEC15F0200E9EA8FED7F7
:103CD000AD6E890EE96EA9C084F2A8C083F2A7C0B8
:103CE00082F2A6C081F2060E0201856F0001CBECC4
:103CF00015F00D0E9EA8FED7AD6E01017FEF2EF0E0
:103D000002017369E40E726F010E756F400E746FDD
:103D1000776B030E766F0001BBEC11F00152D8A453
:103D2000DDD0010143513F08D8B484D0010E020117
:103D3000756F400E746F200E766F00015EEC12F00E
:103D400002C070F201C06FF2010E02016F25726FA6
:103D5000000E7021736F796F72C278F20001BAECB5
:103D600012F001C055F0010E02016F25726F000EB6
:103D70007021736F756F72C274F2200E766F00013E
:103D80005EEC12F002C070F201C06FF2010E02018F
:103D90006F25726F000E7021736F796F72C278F2A7
:103DA0000001BAEC12F001C056F00B0E4824016E6F
:103DB000000E4920036E01500201726F03C073F2BE
:103DC000F250006EF29E73C2AAFF72C2A9FF55C0E4
:103DD000A8FFA69CA69EA6840F01550EA76EAA0E4C
:103DE000A76EA682A6B2FED7A6940050F2120C0EC1
:103DF0004824016E000E4920036E01500201726FCB
:103E000003C073F2F250006EF29E73C2AAFF72C238
:103E1000A9FF56C0A8FFA69CA69EA6840F01550E1A
:103E2000A76EAA0EA76EA682A6B2FED7A6940050D1
:103E3000F21201010B0E4824016E000E4920036EA0
:103E400001500201726F03C073F2F2CF74F2F29E5E
:103E500073C2AAFF72C2A9FFA69CA69EA680A85004
:103E600074BFF28E556E0C0E4824016E000E492070
:103E7000036E0150726F03C073F2F2CF74F2F29EC0
:103E800073C2AAFF72C2A9FFA69CA69EA680A850D4
:103E900074BFF28E566E400EF66E100EF76E040E64
:103EA000816F00010FEC11F055C076F2180E02017F
:103EB000776F00014DEC11F0200E9EA8FED7AD6E7D
:103EC00056C076F2180E0201776F00014DEC11F02A
:103ED0000D0E9EA8FED7AD6E7FEF2EF00201736926
:103EE000E00E726F010E756F400E746F776B030EEC
:103EF000766F0001BBEC11F001523EE11FEC0DF0BA
:103F00005550800A006E0101D651800A005C0AE219
:103F1000896A8A6A3B6B3C6BD56BD881D883300E3B
:103F2000366E12D05650800A006ED651800A005C60
:103F300008E2D8A303D0330E366E02D0320E366EAE
:103F400003D0310E366ED8934C0EF66E100EF76E0F
:103F5000040E0201816F00010FEC11F0D6C176F260
:103F6000180E0201776F00014DEC11F00D0E9EA8A6
:103F7000FED7AD6E7FEF2EF002017369DC0E726F1B
:103F8000010E756F400E746F776B030E766F000134
:103F9000BBEC11F00152D8A449D1010143513F08B3
:103FA000D8B4C8D0010E0201756F400E746F200E98
:103FB000766F00015EEC12F002C070F201C06FF289
:103FC000010E02016F25726F000E7021736F796F01
:103FD00072C278F20001BAEC12F001C05FF0010E7B
:103FE00002016F25726F000E7021736F756F72C2C0
:103FF00074F2200E766F00015EEC12F002C070F2D7
:1040000001C06FF2010E02016F25726F000E702168
:10401000736F796F72C278F20001BAEC12F001C0CE
:1040200060F0010E02016F25726F000E7021736F38
:10403000756F72C274F2200E766F00015EEC12F0A2
:1040400002C070F201C06FF2010E02016F25726FA3
:10405000000E7021736F796F72C278F20001BAECB2
:1040600012F001C061F0150E4824016E000E4920C7
:10407000036E01500201726F03C073F2F250006EC2
:10408000F29E73C2AAFF72C2A9FF5FC0A8FFA69CDE
:10409000A69EA6840F01550EA76EAA0EA76EA68235
:1040A000A6B2FED7A6940050F212160E4824016E56
:1040B000000E4920036E01500201726F03C073F2BB
:1040C000F250006EF29E73C2AAFF72C2A9FF60C0D6
:1040D000A8FFA69CA69EA6840F01550EA76EAA0E49
:1040E000A76EA682A6B2FED7A6940050F212170EB3
:1040F0004824016E000E4920036E01500201726FC8
:1041000003C073F2F250006EF29E73C2AAFF72C235
:10411000A9FF61C0A8FFA69CA69EA6840F01550E0C
:10412000A76EAA0EA76EA682A6B2FED7A6940050CE
:10413000F2120101150E4824016E000E4920036E93
:1041400001500201726F03C073F2F2CF74F2F29E5B
:1041500073C2AAFF72C2A9FFA69CA69EA680A85001
:1041600074BFF28E5F6E160E4824016E000E492059
:10417000036E0150726F03C073F2F2CF74F2F29EBD
:1041800073C2AAFF72C2A9FFA69CA69EA680A850D1
:1041900074BFF28E0001606F170E4824016E000E8E
:1041A0004920036E01500201726F03C073F2F2CF17
:1041B00074F2F29E73C2AAFF72C2A9FFA69CA69EC9
:1041C000A680A85074BFF28E0001616F540EF66E87
:1041D000100EF76E040E0201816F00010FEC11F05A
:1041E0005FC081F21B0E0201826F00011FEC12F012
:1041F000200E9EA8FED7AD6E60C081F21B0E02019C
:10420000826F00011FEC12F0200E9EA8FED7AD6E4B
:1042100061C081F21B0E0201826F00011FEC12F0DF
:104220000D0E9EA8FED7AD6E7FEF2EF002017369D2
:10423000D80E726F010E756F400E746F776B030EA0
:10424000766F0001BBEC11F00152D8A47AD00101C5
:1042500043513F0842E0010E0201756F400E746F3A
:10426000200E766F00015EEC12F002C070F201C009
:104270006FF2010E02016F25726F000E7021736FD5
:10428000796F72C278F20001BAEC12F001C04BF003
:10429000010E4824016E000E4920036E01500201F8
:1042A000726F03C073F2F250006EF29E73C2AAFFE7
:1042B00072C2A9FF4BC0A8FFA69CA69EA6840F01B0
:1042C000550EA76EAA0EA76EA682A6B2FED7A6941A
:1042D0000050F2124BC040FF0101010E4824016E54
:1042E000000E4920036E01500201726F03C073F289
:1042F000F2CF74F2F29E73C2AAFF72C2A9FFA69C0B
:10430000A69EA680A85074BFF28E4B6E620EF66E0B
:10431000100EF76E040E816F00010FEC11F04BC010
:1043200081F21B0E0201826F00011FEC12F0200EC1
:104330009EA8FED7AD6E0D0E9EA8FED7AD6E7FEF88
:104340002EF002017369D40E726F010E756F400E6C
:10435000746F776B030E766F0001BBEC11F00152A6
:10436000D8A44BD1010143513F08D8B4C8D0010EA5
:104370000201756F400E746F200E766F00015EECC7
:1043800012F002C070F201C06FF2010E02016F253F
:10439000726F000E7021736F796F72C278F2000134
:1043A000BAEC12F001C0ACF0010E02016F25726F81
:1043B000000E7021736F756F72C274F2200E766FEB
:1043C00000015EEC12F002C070F201C06FF2010E4B
:1043D00002016F25726F000E7021736F796F72C2C8
:1043E00078F20001BAEC12F001C0ADF0010E02014A
:1043F0006F25726F000E7021736F756F72C274F249
:10440000200E766F00015EEC12F002C070F201C067
:104410006FF2010E02016F25726F000E7021736F33
:10442000796F72C278F20001BAEC12F001C0AEF0FE
:10443000620E4824016E000E4920036E01500201F5
:10444000726F03C073F2F250006EF29E73C2AAFF45
:1044500072C2A9FFACC0A8FFA69CA69EA6840F01AD
:10446000550EA76EAA0EA76EA682A6B2FED7A69478
:104470000050F212630E4824016E000E4920036EB4
:1044800001500201726F03C073F2F250006EF29E8F
:1044900073C2AAFF72C2A9FFADC0A8FFA69CA69EC8
:1044A000A6840F01550EA76EAA0EA76EA682A6B20D
:1044B000FED7A6940050F212640E4824016E000E3E
:1044C0004920036E01500201726F03C073F2F25073
:1044D000006EF29E73C2AAFF72C2A9FFAEC0A8FF0F
:1044E000A69CA69EA6840F01550EA76EAA0EA76EC7
:1044F000A682A6B2FED7A6940050F2120101620E67
:104500004824016E000E4920036E01500201726FB3
:1045100003C073F2F2CF74F2F29E73C2AAFF72C2AA
:10452000A9FFA69CA69EA680A85074BFF28E00018B
:10453000AC6F630E4824016E000E4920036E0150DB
:104540000201726F03C073F2F2CF74F2F29E73C273
:10455000AAFF72C2A9FFA69CA69EA680A85074BFFF
:10456000F28E0001AD6F640E4824016E000E4920EA
:10457000036E01500201726F03C073F2F2CF74F246
:10458000F29E73C2AAFF72C2A9FFA69CA69EA68035
:10459000A85074BFF28E0001AE6F6C0EF66E100E56
:1045A000F76E040E0201816F00010FEC11F0ACC038
:1045B00081F21B0E0201826F00011FEC12F0200E2F
:1045C0009EA8FED7AD6EADC081F21B0E0201826FB8
:1045D00000011FEC12F0200E9EA8FED7AD6EAEC0FB
:1045E00081F21B0E0201826F00011FEC12F00D0E12
:1045F0009EA8FED7AD6E7FEF2EF002017369D00E3C
:10460000726F010E756F400E746F776B030E766FCD
:104610000001BBEC11F0015257E1010143513F0889
:1046200033E0010E0201756F400E746F200E766F3D
:1046300000015EEC12F002C070F201C06FF2010ED8
:1046400002016F25016E000E7021036E01C0E9FFAB
:10465000EA6EEF5031080DE1196AF2BE198EF29E32
:10466000010EAE6F0001CBEC05F019BEF28E0BD03F
:104670000201196AF2BE198EF29EAE6B0001CBECFC
:1046800005F019BEF28E0101000E81B6010E020185
:10469000726F7A0EF66E100EF76E040E816F0001C7
:1046A0000FEC11F072C281F21B0E0201826F000149
:1046B0001FEC12F0200E9EA8FED7AD6E0D0E9EA828
:1046C000FED7AD6E7FEF2EF002017369CC0E726FD4
:1046D000010E756F400E746F776B030E766F0001DD
:1046E000BBEC11F0015248E1840EF66E100EF76E2D
:1046F000040E0201816F00010FEC11F0100EE96E43
:10470000C8C173F2C7C172F29BEC16F0200E9EA8CE
:10471000FED7AD6E100EE96ECAC173F2C9C172F256
:104720009BEC16F0200E9EA8FED7AD6E100EE96E23
:10473000CCC173F2CBC172F29BEC16F0200E9EA896
:10474000FED7AD6E100EE96ECEC173F2CDC172F21E
:104750009BEC16F0200E9EA8FED7AD6E100EE96EF3
:10476000D0C173F2CFC172F29BEC16F00D0E9EA871
:10477000FED7AD6E7FEF2EF002017369C80E726F27
:10478000010E756F400E746F776B030E766F00012C
:10479000BBEC11F0015249E1010E0201756F400EB0
:1047A000746F200E766F00015EEC12F002C070F2A2
:1047B00001C06FF2010E02016F25726F000E7021B1
:1047C000736F796F72C278F20001BAEC12F001C017
:1047D0006BF26BC272F2F5EF16F002C06EF201C01E
:1047E0006DF29E0EF66E100EF76E040E0201816FD2
:1047F00000010FEC11F06BC281F21B0E0201826FFF
:1048000000011FEC12F0200E9EA8FED7AD6E100E18
:10481000E96E6EC273F26DC272F29BEC16F00D0E71
:104820009EA8FED7AD6E7FEF2EF002017369C40E15
:10483000726F010E756F400E746F776B030E766F9B
:104840000001BBEC11F001527AE1010143513F0834
:104850003EE0010E0201756F400E746F200E766F00
:1048600000015EEC12F002C070F201C06FF2010EA6
:1048700002016F25726F000E7021736F796F72C223
:1048800078F27B6B7A6B000133EC14F003C05AF0C2
:1048900002C059F001C058F000C057F00D0E482476
:1048A000016E000E4920036E01C072F20201736FA7
:1048B000756B570E746F01C07AF275C27CF27B6F14
:1048C0007E6B040E7D6F0001FFEC08F001010D0E00
:1048D0004824016E000E4920036E01C072F20201ED
:1048E000736F756B570E746F01C07AF275C27CF2EC
:1048F0007B6F7E6B040E7D6F000135EC09F0AA0E14
:10490000F66E100EF76E040E0201816F00010FECBF
:1049100011F0890EE96E5AC084F259C083F258C072
:1049200082F257C081F2020E0201856F0001CBECCA
:1049300015F00D0E9EA8FED7AD6E7FEF2EF0020192
:104940007369C00E726F010E756F400E746F776BD6
:10495000030E766F0001BBEC11F00152D8A48DD18B
:10496000010143513F08D8B4ECD0010E0201756F2C
:10497000400E746F200E766F00015EEC12F002C0E4
:1049800070F201C06FF2010E02016F25726F000E0E
:104990007021736F756F72C274F2000151EC17F0E1
:1049A00002C0B0F001C0AFF0010E02016F25726FBE
:1049B000000E7021736F756F72C274F2200E766FE5
:1049C00000015EEC12F002C070F201C06FF2010E45
:1049D00002016F25726F000E7021736F756F72C2C6
:1049E00074F2000151EC17F002C0B4F001C0B3F052
:1049F000010E02016F25726F000E7021736F756FCB
:104A000072C274F2200E766F00015EEC12F002C0EA
:104A100070F201C06FF2010E02016F25726F000E7D
:104A20007021736F756F72C274F2000151EC17F050
:104A300002C0B6F001C0B5F0010E02016F25726F21
:104A4000000E7021736F756F72C274F2200E766F54
:104A500000015EEC12F002C070F201C06FF2010EB4
:104A600002016F25726F000E7021736F756F72C235
:104A700074F2000151EC17F002C0B2F001C0B1F0C5
:104A8000650E4824016E000E4920036E01C072F2CB
:104A90000201736F756BAF0E746F01C07AF275C24D
:104AA0007CF27B6F7E6B020E7D6F0001FFEC08F0E5
:104AB000690E4824016E000E4920036E01C072F297
:104AC0000201736F756BB30E746F01C07AF275C219
:104AD0007CF27B6F7E6B020E7D6F0001FFEC08F0B5
:104AE0006B0E4824016E000E4920036E01C072F265
:104AF0000201736F756BB50E746F01C07AF275C2E7
:104B00007CF27B6F7E6B020E7D6F0001FFEC08F084
:104B1000670E4824016E000E4920036E01C072F238
:104B20000201736F756BB10E746F01C07AF275C2BA
:104B30007CF27B6F7E6B020E7D6F0001FFEC08F054
:104B40000101650E4824016E000E4920036E01C06C
:104B500072F20201736F756BAF0E746F01C07AF25F
:104B600075C27CF27B6F7E6B020E7D6F000135ECAF
:104B700009F0690E4824016E000E4920036E01C041
:104B800072F20201736F756BB30E746F01C07AF22B
:104B900075C27CF27B6F7E6B020E7D6F000135EC7F
:104BA00009F06B0E4824016E000E4920036E01C00F
:104BB00072F20201736F756BB50E746F01C07AF2F9
:104BC00075C27CF27B6F7E6B020E7D6F000135EC4F
:104BD00009F0670E4824016E000E4920036E01C0E3
:104BE00072F20201736F756BB10E746F01C07AF2CD
:104BF00075C27CF27B6F7E6B020E7D6F000135EC1F
:104C000009F0B20EF66E100EF76E040E0201816FFF
:104C100000010FEC11F0100EE96EB0C073F2AFC0DE
:104C200072F29BEC16F0200E9EA8FED7AD6E100E11
:104C3000E96EB4C073F2B3C072F29BEC16F0200EB2
:104C40009EA8FED7AD6E100EE96EB6C073F2B5C069
:104C500072F29BEC16F0200E9EA8FED7AD6E100EE1
:104C6000E96EB2C073F2B1C072F29BEC16F00D0E99
:104C70009EA8FED7AD6E7FEF2EF002017369BC0EC9
:104C8000726F010E756F400E746F776B030E766F47
:104C90000001BBEC11F0015263E11C0E016EC25029
:104CA000830B0110C26EC282C2B2FED7C4CFD3F151
:104CB000180E016EC250830B0110C26E4C500101E0
:104CC000D35D03E3D3514D5C02E2D78D01D0D79D74
:104CD000C282C2B2FED7C4CFD4F11C0E016EC25044
:104CE000830B0110C26E4E50D45D03E3D4514F5C70
:104CF00002E2D78B01D0D79B000E81B0010E0201DA
:104D0000726FC80EF66E100EF76E040E816F000102
:104D10000FEC11F0D3C181F21B0E0201826F000172
:104D20001FEC12F0200E9EA8FED7AD6ED4C181F20A
:104D30001B0E0201826F00011FEC12F0200E9EA8D4
:104D4000FED7AD6E72C281F21B0E0201826F0001AE
:104D50001FEC12F00D0E9EA8FED7AD6E7FEF2EF069
:104D600002017369B80E726F010E756F400E746F99
:104D7000776B030E766F0001BBEC11F00152D8A4E3
:104D8000D0D0010143513F0874E0010E0201756F5C
:104D9000400E746F200E766F00015EEC12F002C0C0
:104DA00070F201C06FF2010E02016F25726F000EEA
:104DB0007021736F756F72C274F2000151EC17F0BD
:104DC00002C051F001C050F0010E02016F25726F58
:104DD000000E7021736F756F72C274F2200E766FC1
:104DE00000015EEC12F002C070F201C06FF2010E21
:104DF00002016F25726F000E7021736F756F72C2A2
:104E000074F2000151EC17F002C053F001C052F0EF
:104E1000060E4824016E000E4920036E01C072F296
:104E20000201736F756B500E746F01C07AF275C218
:104E30007CF27B6F7E6B020E7D6F0001FFEC08F051
:104E4000080E4824016E000E4920036E01C072F264
:104E50000201736F756B520E746F01C07AF275C2E6
:104E60007CF27B6F7E6B020E7D6F0001FFEC08F021
:104E70000101060E4824016E000E4920036E01C098
:104E800072F20201736F756B500E746F01C07AF28B
:104E900075C27CF27B6F7E6B020E7D6F000135EC7C
:104EA00009F0080E4824016E000E4920036E01C06F
:104EB00072F20201736F756B520E746F01C07AF259
:104EC00075C27CF27B6F7E6B020E7D6F000135EC4C
:104ED00009F0D60EF66E100EF76E040E0201816F09
:104EE00000010FEC11F0100EE96E51C073F250C0CA
:104EF00072F29BEC16F0200E9EA8FED7AD6E100E3F
:104F0000E96E53C073F252C072F29BEC16F0200EA1
:104F10009EA8FED7AD6E0D0E9EA8FED7AD6E7FEF9C
:104F20002EF002017369B40E726F010E756F400EA0
:104F3000746F776B030E766F0001BBEC11F00152BA
:104F400021E1E40EF66E100EF76E040E0201816F81
:104F500000010FEC11F0EA6A350EE96E24EC11F055
:104F6000200E9EA8FED7AD6ED6C176F2180E0201B5
:104F7000776F00014DEC11F00D0E9EA8FED7AD6EBF
:104F80007FEF2EF002017369B00E726F010E756F24
:104F9000400E746F776B030E766F0001BBEC11F05F
:104FA00001521FE1010E0201756F400E746F200E59
:104FB000766F00015EEC12F002C070F201C06FF279
:104FC000010E02016F25726F000E7021736F796FF1
:104FD00072C278F20001BAEC12F001C0D9F17FEF91
:104FE0002EF002017369AC0E726F010E756F400EE8
:104FF000746F776B030E766F0001BBEC11F00152FA
:1050000013E10101435121080DE1F00EF66E100E7F
:10501000F76E000143EC18F0F29CF29EF2BEFDD751
:10502000FFD701017FEF2EF002017369A80E726FA6
:10503000010E756F400E746F776B030E766F000173
:10504000BBEC11F00152D8A417D3010143513F0822
:10505000D8B49BD1010E0201756F400E746F200E03
:10506000766F00015EEC12F002C070F201C06FF2C8
:10507000010E02016F25726F000E7021736F796F40
:1050800072C278F20001BAEC12F0010E015C02016A
:105090006B6F010E6F25726F000E7021736F756F4D
:1050A00072C274F2200E766F00015EEC12F002C044
:1050B00070F201C06FF202016B510C0DF350036AE4
:1050C000660F016E000E032201C074F203C075F278
:1050D000010E6F25766F000E7021776F796F76C2A3
:1050E00078F27B6B7A6B000133EC14F075C2EAFF47
:1050F00074C2E9FF00C0EFFF01C0ECFF02C0ECFF8B
:1051000003C0ECFF010E02016F25726F000E7021CB
:10511000736F756F72C274F2200E766F00015EECD1
:1051200012F002C070F201C06FF202016B510C0D5F
:10513000F350036A1C0F726F000E0320736F040E8E
:105140007225016E000E7321036E01504A0F016E2D
:10515000000E032201C072F203C073F2010E6F252C
:10516000746F000E7021756F796F74C278F27B6B6B
:105170007A6B000133EC14F073C2EAFF72C2E9FFEC
:1051800000C0EFFF01C0ECFF02C0ECFF03C0ECFF6A
:10519000010E02016F25726F000E7021736F756F23
:1051A00072C274F2200E766F00015EEC12F002C043
:1051B00070F201C06FF202016B510C0DF350036AE3
:1051C0001C0F726F000E0320736F080E7225016EA4
:1051D000000E7321036E01504A0F016E000E032270
:1051E00001C072F203C073F2010E6F25746F000EDE
:1051F0007021756F796F74C278F27B6B7A6B0001E6
:1052000033EC14F073C2EAFF72C2E9FF00C0EFFF93
:1052100001C0ECFF02C0ECFF03C0ECFF0201736BA6
:105220006BC272F2756B0C0E746F000154EC18F0C7
:1052300001501C0F0201726F000E0220736F485064
:105240007225016E49507321036E01C07AF2756FA9
:105250006B510C0DF350036A660F016E000E0322B2
:1052600001C078F203C079F203C07CF201C07BF286
:105270007E6B040E7D6F0001FFEC08F00201736B82
:105280006BC272F2756B0C0E746F000154EC18F067
:1052900001501C0F0201726F000E0220736F040E8A
:1052A0007225016E000E7321036E01504824016EB9
:1052B0004950032201C07AF203C073F26B510C0D06
:1052C000F350036A1C0F746F000E0320756F040EF9
:1052D0007425016E000E7521036E01504A0F016E98
:1052E000000E032201C074F203C075F203C07CF209
:1052F00001C07BF27E6B040E7D6F0001FFEC08F0B5
:105300000201736B6BC272F2756B0C0E746F00014D
:1053100054EC18F001501C0F0201726F000E0220B5
:10532000736F080E7225016E000E7321036E01501B
:105330004824016E4950032201C07AF203C073F27F
:105340006B510C0DF350036A1C0F746F000E032099
:10535000756F080E7425016E000E7521036E0150E5
:105360004A0F016E000E032201C074F203C075F2F1
:1053700003C07CF201C07BF27E6B040E7D6F0001E6
:10538000FFEC08F09CEC0CF00101010E0201756FBE
:10539000400E746F200E766F00015EEC12F002C0BA
:1053A00070F201C06FF2010E02016F25726F000EE4
:1053B0007021736F796F72C278F20001BAEC12F04B
:1053C000010E015C02016B6F736B6BC272F2756B45
:1053D0000C0E746F000154EC18F001501C0F020108
:1053E000726F000E0220736F48507225016E495093
:1053F0007321036E01C07AF2756F6B510C0DF3507F
:10540000036A660F016E000E032201C078F203C02A
:1054100079F203C07CF201C07BF27E6B040E7D6FDB
:10542000000135EC09F00201736B6BC272F2756B0F
:105430000C0E746F000154EC18F001501C0F0201A7
:10544000726F000E0220736F040E7225016E000E43
:105450007321036E01504824016E4950032201C09C
:105460007AF203C073F26B510C0DF350036A1C0FF8
:10547000746F000E0320756F040E7425016E000E0C
:105480007521036E01504A0F016E000E032201C008
:1054900074F203C075F203C07CF201C07BF27E6B34
:1054A000040E7D6F000135EC09F00201736B6BC2D5
:1054B00072F2756B0C0E746F000154EC18F0015011
:1054C0001C0F0201726F000E0220736F080E72250E
:1054D000016E000E7321036E01504824016E495085
:1054E000032201C07AF203C073F26B510C0DF3502A
:1054F000036A1C0F746F000E0320756F080E74256D
:10550000016E000E7521036E01504A0F016E000EF0
:10551000032201C074F203C075F203C07CF201C023
:105520007BF27E6B040E7D6F000135EC09F0010EFD
:1055300002016B25726F6B510C0DF350036A660FFD
:10554000E96E000E0320EA6EEFCF75F2ECCF76F233
:10555000ECCF77F2ECCF78F26B510C0DF350036A7D
:105560001C0F796F000E03207A6F040E7925016EEF
:10557000000E7A21036E01504A0FE96E000E0320DF
:10558000EA6EEFCF79F2ECCF7AF2ECCF7BF2ECCF90
:105590007CF26B510C0DF350036A1C0F7D6F000EF3
:1055A00003207E6F080E7D25016E000E7E21036EA6
:1055B00001504A0FE96E000E0320EA6EEFCF7DF234
:1055C000ECCF7EF2ECCF7FF2ECCF80F2FC0EF66EE9
:1055D000100EF76E030E816F00010FEC11F072C216
:1055E00081F21B0E0201826F00011FEC12F0200EEF
:1055F0009EA8FED7AD6E890EE96E78C284F277C29E
:1056000083F276C282F275C281F2060E0201856FC4
:105610000001CBEC15F0200E9EA8FED7AD6E890ED2
:10562000E96E7CC284F27BC283F27AC282F279C2D2
:1056300081F2060E0201856F0001CBEC15F0200E01
:105640009EA8FED7AD6E890EE96E80C284F27FC23D
:1056500083F27EC282F27DC281F2060E0201856F64
:105660000001CBEC15F0200E9EA8FED7AD6E0D0EFE
:105670009EA8FED7AD6E43D302017369A40E726F6C
:10568000010E756F400E746F776B030E766F00011D
:10569000BBEC11F0015233E1160EF66E110EF76EEF
:1056A000040E0201816F00010FEC11F0890EE96E0A
:1056B00043C084F242C083F241C082F240C081F212
:1056C000060E0201856F0001CBEC15F0200E9EA89E
:1056D000FED7AD6E890EE96E47C084F246C083F2F4
:1056E00045C082F244C081F2060E0201856F0001BE
:1056F000CBEC15F00D0E9EA8FED7AD6E00D30201C7
:105700007369A00E726F010E756F400E746F776B28
:10571000030E766F0001BBEC11F001520DE1010E9A
:105720000201726F00015EEC09F0280EF66E110E98
:10573000F76E43EC18F0E3D2020173699A0E726FB0
:10574000010E756F400E746F776B050E766F00015A
:10575000BBEC11F001521DE1F250006EF29E030EFF
:10576000AA6EA968A86AA69CA69EA6840F01550EDB
:10577000A76EAA0EA76EA682A6B2FED7A694005068
:10578000F2120A0E0201766F000107EC0DF0FF0025
:10579000B6D202017369960E726F010E756F400EDC
:1057A000746F776B030E766F0001BBEC11F0015242
:1057B00002E1FF00A4D202017369920E726F010E22
:1057C000756F400E746F776B030E766F0001BBEC44
:1057D00011F0015207E12E0EF66E110EF76E43EC3A
:1057E00018F08DD2020173698E0E726F010E756F03
:1057F000400E746F776B030E766F0001BBEC11F0F7
:1058000001526BE1010143513F0838E0010E0201F2
:10581000756F400E746F200E766F00015EEC12F013
:1058200002C070F201C06FF2010E02016F25726FAB
:10583000000E7021736F756F72C274F2000151EC2B
:1058400017F002C0ABF001C0AAF0600E4824016E50
:10585000000E4920036E01C072F20201736F756B76
:10586000AA0E746F01C07AF275C27CF27B6F7E6BF8
:10587000020E7D6F0001FFEC08F00101600E48246C
:10588000016E000E4920036E01C072F20201736FB7
:10589000756BAA0E746F01C07AF275C27CF27B6FD1
:1058A0007E6B020E7D6F000135EC09F0500EF66E36
:1058B000110EF76E040E0201816F00010FEC11F062
:1058C000100EE96EABC073F2AAC072F29BEC16F038
:1058D0000D0E9EA8FED7AD6E12D2020173698A0E1C
:1058E000726F010E756F400E746F776B030E766FDB
:1058F0000001BBEC11F00152D8A4D0D101014351F9
:105900005208D8A475D0F29CF29EF2BEFDD70201D7
:10591000686B0001B7510201685D66E2D890683596
:10592000036AB80FE96E000E0320EA6EEFCF74F23F
:10593000D8906835036A6E0F756F000E0320766F7E
:10594000010E7525016E000E7621036E01504A0F7F
:10595000E96E000E0320EA6EEFCF75F25A0EF66E76
:10596000110EF76E040E816F00010FEC11F0B7C03D
:1059700081F21B0E0201826F00011FEC12F0200E5B
:105980009EA8FED7AD6E68C281F21B0E0201826F27
:1059900000011FEC12F0200E9EA8FED7AD6E74C25F
:1059A00076F2180E0201776F00014DEC11F0200E17
:1059B0009EA8FED7AD6E75C276F2180E0201776F03
:1059C00000014DEC11F0200E9EA8FED7AD6E0D0E1D
:1059D0009EA8FED7AD6EC80E0201766F000107ECDF
:1059E0000DF00201682B95D7C00EF21256D10101BD
:1059F00043515708D8A450D1010E0201756F400ED3
:105A0000746F200E766F00015EEC12F002C070F22F
:105A100001C06FF2010E02016F25726F000E70213E
:105A2000736F796F72C278F20001BAEC12F001C0A4
:105A3000B7F0010E02016F25726F000E7021736FB7
:105A4000756F72C274F2200E766F00015EEC12F078
:105A500002C070F201C06FF2010E02016F25726F79
:105A6000000E7021736F796F72C278F20001BAEC88
:105A700012F001C068F2010E02016F25726F000E74
:105A80007021736F756F72C274F2200E766F000111
:105A90005EEC12F002C070F201C06FF2D890020109
:105AA0006835036AB80F016E000E032201C074F25C
:105AB00003C075F2010E6F25766F000E7021776FAF
:105AC000796F76C278F20001BAEC12F075C2EAFF83
:105AD00074C2E9FF01C0EFFF010E02016F25726F72
:105AE000000E7021736F756F72C274F2200E766FA4
:105AF00000015EEC12F002C070F201C06FF2D890AB
:105B000002016835036A6E0F726F000E0320736F17
:105B1000010E7225016E000E7321036E01504A0FB3
:105B2000016E000E032201C072F203C073F2010E77
:105B30006F25746F000E7021756F796F74C278F2E3
:105B40000001BAEC12F073C2EAFF72C2E9FF01C0B1
:105B5000EFFF6D0E4824016E000E4920036E0150C8
:105B60000201726F03C073F2F250006EF29E73C2B4
:105B7000AAFF72C2A9FFB7C0A8FFA69CA69EA684D2
:105B80000F01550EA76EAA0EA76EA682A6B2FED76B
:105B9000A6940050F212036A02016851026ED89076
:105BA0000236033602506E0F726F000E0320736FC1
:105BB00048507225016E49507321036E0150746F75
:105BC00003C075F2D8906835036AB80FE96E000E0D
:105BD0000320EA6EEFCF78F2F250006EF29E75C2AB
:105BE000AAFF74C2A9FF78C2A8FFA69CA69EA6849D
:105BF0000F01550EA76EAA0EA76EA682A6B2FED7FB
:105C0000A6940050F212036A02016851026ED89005
:105C10000236033602506E0F726F000E0320736F50
:105C2000010E7225016E000E7321036E015048248F
:105C3000016E495003220150726F03C073F2D89075
:105C40006835036A6E0F746F000E0320756F010EC6
:105C50007425016E000E7521036E01504A0FE96E26
:105C6000000E0320EA6EEFCF74F2F250006EF29E47
:105C700073C2AAFF72C2A9FF74C2A8FFA69CA69E07
:105C8000A6840F01550EA76EAA0EA76EA682A6B215
:105C9000FED7A6940050F212020132D002017369BD
:105CA000860E726F010E756F400E746F776B030E68
:105CB000766F0001BBEC11F001520BE1010E020105
:105CC000616F0101D785F29CF29EF2BEFDD717D01D
:105CD00000016C0EF66E110EF76E040E0201816F5C
:105CE00000010FEC11F00A0E0201816F1B0E826F92
:105CF00000011FEC12F00D0E9EA8FED7AD6E020142
:105D0000615307E10A0E766F000107EC0DF0DDD15B
:105D10000201640E766F000107EC0DF00400020131
:105D20006151010A000138E0030A49E0010A5AE022
:105D3000070AD8B46AD0010AD8B47AD0030AD8B412
:105D40008AD0010AD8B49AD00F0AD8B4AAD0010ACE
:105D5000D8B4BAD0030AD8B4CAD0010AD8B4DAD0B9
:105D6000070AD8B4EAD0010AD8B4FAD0030AD8B4E2
:105D70000AD1010AD8B41AD11F0AD8B42AD1010A0B
:105D8000D8B43AD1030AD8B44AD1010AD8B45AD106
:105D9000070AD8B46AD17CD1010EEA6E400EE96ED2
:105DA000000E01EC05F00A000900F550EE6E000946
:105DB000FBE10201612B010E016E8AD10001010E8F
:105DC000EA6E400EE96E000EF7EC04F00A000900DE
:105DD000F550EE6E0009FBE10201612B010E016E30
:105DE00077D10001010EEA6E400EE96E000E0BEC59
:105DF00005F00A000900F550EE6E0009FBE1020112
:105E0000612B010E016E64D10001010EEA6E400E9D
:105E1000E96E000E16EC05F00A000900F550EE6E72
:105E20000009FBE10201612B010E016E51D100015D
:105E3000010EEA6E400EE96E000E21EC05F00A003C
:105E40000900F550EE6E0009FBE10201612B010E25
:105E5000016E3ED10001010EEA6E400EE96E000EA9
:105E60002CEC05F00A000900F550EE6E0009FBE18C
:105E70000201612B010E016E2BD10001010EEA6EB1
:105E8000400EE96E000E37EC05F00A000900F550EF
:105E9000EE6E0009FBE10201612B010E016E18D1CB
:105EA0000001010EEA6E400EE96E000E42EC05F0B4
:105EB0000A000900F550EE6E0009FBE10201612BBA
:105EC000010E016E05D10001010EEA6E400EE96E71
:105ED000000E4DEC05F00A000900F550EE6E0009C9
:105EE000FBE10201612B010E016EF2D00001010EF7
:105EF000EA6E400EE96E000E58EC05F00A0009004B
:105F0000F550EE6E0009FBE10201612B010E016EFE
:105F1000DFD00001010EEA6E400EE96E000E63EC68
:105F200005F00A000900F550EE6E0009FBE10201E0
:105F3000612B010E016ECCD00001010EEA6E400E05
:105F4000E96E000E6EEC05F00A000900F550EE6EE9
:105F50000009FBE10201612B010E016EB9D00001C5
:105F6000010EEA6E400EE96E000E7AEC05F00A00B2
:105F70000900F550EE6E0009FBE10201612B010EF4
:105F8000016EA6D00001010EEA6E400EE96E000E11
:105F900086EC05F00A000900F550EE6E0009FBE101
:105FA0000201612B010E016E93D00001010EEA6E19
:105FB000400EE96E000E92EC05F00A000900F55063
:105FC000EE6E0009FBE10201612B010E016E80D033
:105FD0000001010EEA6E400EE96E000E9EEC05F027
:105FE0000A000900F550EE6E0009FBE10201612B89
:105FF000010E016E6DD00001010EEA6E400EE96ED9
:10600000000EE1EC04F00A000900F550EE6E000904
:10601000FBE10201612B010E016E5AD00001010E5D
:10602000EA6E400EE96E000EAAEC05F00A000900C7
:10603000F550EE6E0009FBE10201612B010E016ECD
:1060400047D00001010EEA6E400EE96E000EB5EC7D
:1060500005F00A000900F550EE6E0009FBE10201AF
:10606000612B010E016E34D00001010EEA6E400E6C
:10607000E96E000EC0EC05F00A000900F550EE6E66
:106080000009FBE10201612B010E016E21D000012C
:10609000740EF66E110EF76E43EC18F00A0E020144
:1060A000766F000107EC0DF00201616B0101D793DF
:1060B000A19A9E92A1927E94F292F090C00EF2125A
:1060C000000E016E020104D00001020171C201F054
:1060D00000011200F86AF1949F92A292F09C9F9A9C
:1060E000A28A7F94D08E078EB8868A0EAF6E000E7D
:1060F000B06EA60EAC6E900EAB6E6C9A400E6D6ECE
:10610000200E6C6EC69A400EC76E200EC66E496A8F
:10611000486A01013F6BD26BD16BD66BD96BDA6BDE
:1061200002015B6B5C6B5D6B5E6B606B5F6B616BED
:1061300054C062F2190E636F646B320E656F0F010B
:10614000386B396B3A6B3B6B3C6B0101886B776A40
:10615000786A796A0BD002002F00000501C2EF8F28
:106160002FCF4F0AC0008041DB000000000EF86E08
:10617000610EF76E560EF66E0900F550006E000ABD
:1061800013E00900F550016EE8BE05D00F0BEA6E72
:106190000900F5CFE9FF01BC090001AC0900F5CF0A
:1061A000EEFF004EE9D7F9D7F86A0001BDEF08F01D
:1061B000D4EF08F0C69A210EC66E000EC76E6C9A18
:1061C000210E6C6E000E6D6EAB9EAB98AC9AB886CD
:1061D0008A0EAF6E000EB06EA60EAC6E900EAB6E59
:1061E000896A8A6A01013B6B3C6BD56B0201726B59
:1061F00000015EEC09F09CEC0CF0DBEC05F0C0500B
:10620000C00B3E09C06EC09EC280180E016EC25007
:10621000830B0110C26E0201666B6651020810E327
:106220008B80640E766F000107EC0DF08B90640E8E
:106230000201766F000107EC0DF00201662BEDD72D
:106240000101D887D899D791D793D797D799D79B5A
:10625000D79DD79FD891D895D795D893320E356EC4
:10626000310E366E376E300E386E310E396E300E9E
:106270003A6E3B6E3851310803E1310E3C6E02D06C
:10628000300E3C6E3951310803E1310E3D6E02D0C3
:10629000300E3D6E3E6A1C0E016EC250830B011023
:1062A000C26EC282C2B2FED7C4CFD3F1180E016E45
:1062B000C250830B0110C26E4C50D35D03E3D35127
:1062C0004D5C02E2D78D01D0D79DC282C2B2FED70B
:1062D000C4CFD4F11C0E016EC250830B0110C26EEC
