:0400000069EF2DF087
:080008007DEF00F00000000094
:100010000000000000000000046ED8CF05F0E0CF23
:1000200006F00001E9CF0CF0EACF07F0E1CF08F0CD
:10003000E2CF09F0D9CF0AF0DACF0BF0F3CF12F00C
:10004000F4CF13F0FACF14F0F5CF15F0F6CF16F089
:10005000F7CF17F000C00EF001C00FF002C010F093
:1000600003C011F0F2AA38EF00F0F2B43FEF03F052
:100070009DA23EEF00F09EB20BEF03F0A0A244EF72
:1000800000F0A1B234EF03F0F0A64AEF00F0F0B0B8
:10009000F9EF02F09DAA50EF00F09EBA56EF03F080
:1000A0007DA456EF00F07EB41FEF03F00EC000F009
:1000B0000FC001F010C002F011C003F00CC0E9FF46
:1000C00007C0EAFF078E08C0E1FF09C0E2FF0AC0CF
:1000D000D9FF0BC0DAFF12C0F3FF13C0F4FF14C046
:1000E000FAFF15C0F5FF16C0F6FF17C0F7FF045062
:1000F00006C0E0FF05C0D8FF10001A6ED8CF1BF075
:10010000E0CF1CF00001E9CF22F0EACF1DF0E1CFF3
:100110001EF0E2CF1FF0D9CF20F0DACF21F0F3CFDD
:1001200028F0F4CF29F0FACF2AF0F5CF2BF0F6CF54
:100130002CF0F7CF2DF000C024F001C025F002C054
:1001400026F003C027F0F2A8A9EF00F0F2B2ECEF1E
:1001500002F0A0AAAFEF00F0A1BAEDEF01F024C0C9
:1001600000F025C001F026C002F027C003F022C035
:10017000E9FF1DC0EAFF1D8E1EC0E1FF1FC0E2FFA8
:1001800020C0D9FF21C0DAFF28C0F3FF29C0F4FF47
:100190002AC0FAFF2BC0F5FF2CC0F6FF2DC0F7FFD9
:1001A0001A501CC0E0FF1BC0D8FF1000F76ABC0F3C
:1001B000F66E010EF7220900F55012004144433F4C
:1001C0000000F76AD20FF66E010EF7220900F55013
:1001D00012004147433F0000F76AE80FF66E010E38
:1001E000F7220900F5501200564C473F0000F76A0D
:1001F000FE0FF66E010EF7220900F550120053545F
:100200004100F76A120FF66E020EF7220900F55050
:10021000120056455200F76A260FF66E020EF722BC
:100220000900F550120054504D3F0000F76A3C0F92
:10023000F66E020EF7220900F5501200564C5433A8
:100240003F00F76A520FF66E020EF7220900F550D2
:100250001200564C54353F00F76A680FF66E020ED6
:10026000F7220900F5501200434D503F0000F76A95
:100270007E0FF66E020EF7220900F550120041546F
:10028000543F0000F76A940FF66E020EF722090041
:10029000F55012004F46463F0000F76AAA0FF66E6F
:1002A000020EF7220900F5501200504F4D3F00009A
:1002B000F76AC00FF66E020EF7220900F550120021
:1002C00045564E3F0000F76AD60FF66E020EF72233
:1002D0000900F55012004144563F0000F76AEC0F48
:1002E000F66E020EF7220900F55012004C494E3FFF
:1002F00020310000F76A040FF66E030EF7220900A2
:10030000F55012004C494E3F20320000F76A1C0F96
:10031000F66E030EF7220900F55012004C494E3FCD
:1003200020330000F76A340FF66E030EF72209003F
:10033000F55012004C494E3F20340000F76A4C0F34
:10034000F66E030EF7220900F55012004C494E3F9D
:1003500020350000F76A640FF66E030EF7220900DD
:10036000F550120053524E3F0000F76A7A0FF66EB6
:10037000030EF7220900F55012005052543F0000BE
:10038000F76A900FF66E030EF7220900F55012007F
:100390005054483F00000201B95307E03B50310878
:1003A00004E101013C8703D0020101013C973CC1FB
:1003B0008AFF00011200B00E0F01426FA80E416FBC
:1003C0004BC040FF929A776ABD0E786E796A925060
:1003D0000209926E93500001120081B208D002010E
:1003E000B96B0001D8DF0101E287F2D0000178ACDF
:1003F000E9D0BC6A9E929D82B36AB26AA192A08241
:100400000201B86BB851070810E30400040E006E37
:10041000002EFED700D081B206D0B96B0001BBDF41
:100420000101E2870201B82BEDD7036A6F51CC0FAF
:10043000E96E010E0320EA6EEFCFBBF2BBC28CFF68
:1004400078AC20D08C946F506F6A6D30FEE36FCF24
:10045000BBF26F506F6A6D30FEE36FCFBCF28C84DD
:10046000BB51070BBE6FBCC2BDF2BBB702D0080EBA
:10047000BE27BDC201F0BEC202F002C0BAF201C086
:10048000B9F201D092D0D8906F35036AC20FE96EED
:10049000010E0320EA6EECCFBAF2ED52EFCFB9F2C3
:1004A00078AC83D0D8906F35036AD10FE96E010E16
:1004B0000320EA6EBAC2ECFFED52B9C2EFFF6F53F0
:1004C00042E10001B2510201BA5D09E305E1000118
:1004D000B1510201B95D03E3300E706F2CD0000101
:1004E000B6510201BA5D09E305E10001B55102010F
:1004F000B95D03E3340E706F1ED00001B4510201E8
:10050000BA5D09E305E10001B3510201B95D03E3FE
:10051000310E706F10D00001B0510201BA5D09E3D5
:1005200005E10001AF510201B95D03E3330E706FC5
:1005300002D0350E706F7051355C05E070C235F039
:100540000101E38502016F5104081EE1BA51515CBB
:1005500014E303E15050B95D10E20101DB2BD8B484
:10056000DC2B5350DC5D07E303E1DB51525C03E21B
:10057000E28FDC6BDB6B07D00201310E396E0101BB
:10058000E29FDC6BDB6B02016F2B6F51040801E211
:100590006F6B036A6F51CC0FE96E010E0320EA6E98
:1005A000EFCFBBF2BBC28CFF00D081B206D0B96BDB
:1005B0000001F1DE0101E28702010001FCDEA09AE8
:1005C000A19A05D00201B96B0001E5DEA19A0101F3
:1005D000A19A0001AFEF00F081A008D0896A8A6A71
:1005E00001013B6B3C6BDF6BE2890001F292AFEFE4
:1005F00000F081B20DD0196AF2BE198EF29E02018E
:10060000B96B0001C8DE19BEF28E0101E28700015C
:10061000F09056EF00F0196AF2BE198EF29E0201B8
:10062000B96B0001B8DE19BEF28E9D920F014C6BC2
:100630007E947D84A19A9E92000156EF00F03B507B
:1006400031080BE1196AF2BE198EF29E010E020109
:10065000B96F0001A0DE19BEF28EADDEA19AA08AAC
:100660007D947E9456EF00F0320E356E0101DC6B06
:10067000DB6BE385A092A192000156EF00F001012F
:10068000E283ABB402D0ABA20DD0AB9EAB98AC9AD8
:10069000B8868A0EAF6E000EB06EA60EAC6E900ECF
:1006A000AB6E3F6BF294000156EF00F09EAAFED7AE
:1006B000AECFB5F20201B5510D081AE1036A01018E
:1006C0003F51E60FE96E010E0320EA6EEF6A010E5C
:1006D000EA6E400EE96E010EE26EE60EE16EE75242
:1006E000E6CFEEFFFCE13F6BE28111D010D00201BA
:1006F000036A01013F51E60FE96E010E0320EA6E25
:10070000B5C2EFFF3F2B3F517E0801E23F6B9E9A3F
:10071000000156EF00F05354412025732025640D4D
:1007200000005354412025732025640D00005354CC
:10073000412025732025640D00005354412025736A
:100740002025640D00005354412025732025640D9D
:1007500000005354412025732025640D000053549C
:10076000412025732025640D00005354412025733A
:100770002025640D00005354412025732025640D6D
:1007800000005354412025732025640D000053546C
:100790004520257320254C7520254C7520254C754A
:1007A00020254C7520254C75202575202564202595
:1007B000752025752025750D00005354452025739F
:1007C00020254C7520254C7520254C7520254C7511
:1007D00020254C752025752025642025752025753C
:1007E0002025750D00005354412025732025640DEC
:1007F00000005354412025732025640D00004F460E
:1008000046202575200D00005354412025732025D6
:10081000640D00004154542025750D0041544420BE
:1008200025750D004147432025752025750D0000D5
:10083000564C54352025752025752025352E3366D8
:100840000D00564C54332025752025752025332E58
:1008500036662025332E36660D0054504D20256413
:100860002025640D00005450472025640D00455696
:100870004E2025752025752025750D00434D5020EF
:100880002575200D00005052542025752025752017
:1008900025750D00434F4D202575200D0000414466
:1008A0004320254C7520254C7520254C7520254C62
:1008B0007520254C750D00004144542025752025D8
:1008C0004C750D004144562025660D0050544820BB
:1008D000254C7520254C7520254C7520254C750D13
:1008E0000000564C472025752025752025750D00E4
:1008F000504F4D20254C7520254C75200D0053542C
:10090000412025732025640D000057445420544590
:100910005354200D00004C494E25752025332E36AA
:10092000662025332E36662025332E3666200D00B0
:100930004141412025332E36662025332E36660D63
:1009400000004550520D000056455220494E444F7C
:100950004F522032322DFFEDE22D3139202020324E
:10096000323A34343A33350D000053524E20254C80
:10097000750D0000545441202575202575202564EF
:10098000202564200D004552522025750D005F532F
:1009900045540D00870ED56ECD6ACC6A080E060947
:1009A000BA6E480EBB6EB46A370EB16E0F014D6B56
:1009B0004E6B100E06094A6FC80E4B6F0001DDEF3B
:1009C0002DF0C60E926E01013B6B3BC189FF070EF5
:1009D000936E3C6B3CC18AFFD00E946EE20E3D6F6D
:1009E0003DC18BFF020E956E040E3E6F3EC18CFF23
:1009F0009690968296849686C150F00B0809C16E37
:100A0000000E0F01386F060E3C6F000E396F3A6F03
:100A10003B6F0001DFEF2DF087C28BF286C28AF2B6
:100A2000020189C203F08851D8B4890788070310EE
:100A300027E08551852B8C6F8B51036E8A518A2B51
:100A4000D8B48B2BE96E03C0EAFFEFCF8DF2F250E2
:100A5000006EF29EAA6A8CC2A9FF8DC2A8FFA69C56
:100A6000A69EA6840F01550EA76EAA0EA76EA6829B
:100A7000A6B2FED7A6940050F2120001D1D702010F
:100A80000001120087C28BF286C28AF2020189C27B
:100A900003F08851D8B48907880703101AE08B51F6
:100AA000036E8A518A2BD8B48B2BE96E03C0EAFF00
:100AB0008551852B8E6FF2CF8FF2F29EAA6A8EC27D
:100AC000A9FFA69CA69EA680A8508FBFF28EEF6EAF
:100AD000DED700011200550E4A6E060E4B6E320E26
:100AE0004C6EFA0E4D6E320E4E6EFA0E4F6E0B0EAF
:100AF000516EB80E506E536A140E526E340E546E10
:100B00004B0E556E320E566E7B0E5A6E140E596E8B
:100B10001E0E586E800E576E5E6A5D6A5C6A5B6A76
:100B2000020E5F6E606F050E616F0A0E656FD70E65
:100B3000646F230E636F800E626FE30E696FA50E04
:100B4000686F1B0E676F790E666FAE0E6D6F470E86
:100B50006C6FA30E6B6F840E6A6F330E716F706FC4
:100B60001B0E6F6F830E6E6F0A0E756FD70E746F4C
:100B7000230E736F790E726F796B786BD00E776F6F
:100B8000820E766F7D6B7C6B480E7B6F840E7A6F66
:100B90009E0E816FEF0E806F270E7F6F790E7E6F36
:100BA000660E856F846F820E836F830E826F9A0E3E
:100BB000896F990E886F560E876F840E866FCD0EE3
:100BC0008D6FCC0E8C6F4C0E8B6F790E8A6F660E0C
:100BD000916F906FB60E8F6F830E8E6F956B946BC7
:100BE000120E936F850E926F330E996FC40E986F2D
:100BF000310E976F790E966F9A0E9D6F990E9C6FBE
:100C0000DD0E9B6F820E9A6FA16BA06B120E9F6F11
:100C1000850E9E6F340EA56FF60EA46F250EA36F82
:100C20007C0EA26FE60EA96FAC0EA86F6F0EA76FB9
:100C30007B0EA66FAB6B010EAA6F180EB76FD80EA6
:100C4000B86F080EB96FDD0EBA6F080EBB6FE20EFB
:100C5000BC6F080EBD6FE70EBE6F080EBF6FEC0EC7
:100C6000C06F080EC16FF10EC26F080EC36FF60E93
:100C7000C46F070EC56FFB0EC66F060EC76FC86B3D
:100C8000050EC96FCA6F040ECB6F0A0ECC6F030E30
:100C9000CD6F0F0ECE6F020ECF6F140ED06F010E00
:100CA000D16F190ED26FD36B1E0ED46FD569230E80
:100CB000D66FFE0ED76F280ED86FFD0ED96F2D0E92
:100CC000DA6FFC0EDB6F320EDC6FFB0EDD6F370E62
:100CD000DE6FFA0EDF6F3C0EE06FF90EE16F410E32
:100CE000E26FF80EE36F460EE46FF70EE56F4B0E02
:100CF000E66FF50EE76F010EAC6F0A0EAD6FAE6FCB
:100D0000090EB06F370EAF6F090EB46FD50EB36F0B
:100D10000A0EB66FA70EB56F0B0EB26F110EB16F44
:100D2000300E0101386F396F460E3A6F4850016E30
:100D30004950036E015002017E6F03C07FF2F2CF73
:100D400080F2F29E7FC2AAFF7EC2A9FFA69CA69E49
:100D5000A680A85080BFF28E550802E17D2D14D0E8
:100D600048C001F049C003F048C07EF249C07FF29C
:100D700048C085F2876B4A0E866F896BF10E886FCB
:100D800000014ADE13D0020148C001F049C003F05F
:100D900048C07EF249C07FF248C085F2876B4A0E98
:100DA000866F896BF10E886F00016CDE1200020104
:100DB000A151D8B471D0006EA551D8B46DD0002621
:100DC00004E3810E002668E204D07F0E005E64E337
:100DD00063E0A2C2A9F2A651A91BA28FA68FA451BB
:100DE000A803F4CFABF2A351A703F4CF03F0F3CFE2
:100DF000AAF2A803F350AB27F450AA23000E032253
:100E0000A451A703F350AB27F450AA23000E026AA3
:100E100003220222A251A803F350AA27F45003226E
:100E2000000E0222A251A703F3500326F45002221F
:100E3000000E016A0122A451A603F350AA27F45020
:100E40000322000E02220122A351A603F35003261F
:100E5000F4500222000E0122A251A603F3500226F2
:100E6000F4500122002A01BE05D0AA37033602360B
:100E700001360006000EAAAF0AD0032A0222012280
:100E8000015005E1025003E1035001E1002AA9BF2E
:100E9000018EA9AF019E04D0006A016A026A036A4A
:100EA000000112008E0E006EA6C201F0A5C202F073
:100EB000036A015209E102C001F0026A080E005EF5
:100EC000015202E1006A08D0D89001BE04D0023677
:100ED00001360006F9D7019E1200800ED8A202D07A
:100EE0000201AA1B0201AF6BB06BA6C2AEF2AA51FF
:100EF000AE1BA551D8B4DFD0AD6F006EA951D8B4E8
:100F0000E3D0AD5FD8B483D03EE3AAC2B3F2B38FCF
:100F1000ABC2B2F2ACC2B1F2B06BD890B333B23361
:100F2000B133B033AD2FF8D7AEAF03D0AF81E0D03F
:100F3000AF91AD91AF89020EEA6EA80EE96EEBD0CB
:100F4000AF99AEBF0AD0ADA113D0B333B233B13332
:100F5000B033002AD8B4C7D00BD0B3BF0CD0D890D0
:100F6000B037B137B237B3370006D8B4BCD0F5D7F5
:100F7000AF8D6DD0AF9DA6C2AEF2A6AF02D0B38F3B
:100F8000ABD0B39FA9D0A9C2ADF2A9C200F0A551C0
:100F9000AD5FA6C2B3F2B38FA7C2B2F2A8C2B1F2DC
:100FA000B06BD890B333B233B133B033AD2FF8D781
:100FB000AEAF03D0AF839CD0AF93AD91AF8B020E99
:100FC000EA6EAC0EE96EA7D0AF9BAEBF0AD0ADA162
:100FD00013D0B333B233B133B033002AD8B483D093
:100FE0000BD0B3BF0CD0D890B037B137B237B337CE
:100FF0000006D8B478D0F5D7AF8F29D0AF9FAAC25A
:10100000AEF2AAAF02D0B38F67D0B39F65D0AAC2A9
:10101000B3F2B38FABC2B2F2ACC2B1F2AEAF04D096
:10102000B39FAF8565D0AF95B06BAD91020EEA6E00
:10103000A80EE96E70D0AEBF1CD0A6C2AEF2ADA1B4
:1010400006D0B333B233B133B033002A4CE0B0AF83
:101050000BD0B12B09E1B22B07E1B32B05E1B33380
:10106000B233B133002A3FE0AFBD84D7AFBFC6D79C
:101070001CD0800EB31BB3AF04D03AD0AAC2AEF2DC
:101080000AD0A6C2AEF2B35306E1B25304E1B153A3
:1010900002E1006A21D0B3BF08D0D890B037B13791
:1010A000B237B337002EF7D71ED0AEAF02D0B38F12
:1010B00013D0B39F11D0A9C200F0AAC2B3F2ABC241
:1010C000B2F2ACC2B1F208D0A5C200F0A6C2B3F22F
:1010D000A7C2B2F2A8C2B1F2B3C201F0B2C202F02A
:1010E000B1C203F034D0006A016A026A036A2FD0E9
:1010F000B06BB11FB21FB31FB01FB02B05E1B12BF6
:1011000003E1B22B01E1B32BAFB112D7AFB354D788
:10111000AFB589D7B3D7EF50B12705E3B22B03E1C1
:10112000B32BD8B4AD81ED52EF50B22703E3B32B0C
:10113000D8B4AD81ED52EF50EFBE01D0800AB32795
:10114000D8B0AD81AFB9FCD6AFBB3ED774D70001E4
:10115000120069C0A4F268C0A3F267C0A2F266C020
:10116000A1F20201A86BA76BA66B810EA56F00010F
:101170001EDE03C043F002C042F001C041F000C0D7
:1011800040F06DC0A4F26CC0A3F26BC0A2F26AC0C2
:10119000A1F20201A86BA76BA66B810EA56F0001DF
:1011A00006DE03C080F202C07FF201C07EF200C002
:1011B0007DF20201A66B54C0A5F2000173DE03C0EC
:1011C00084F202C083F201C082F200C081F2D882B0
:1011D00003C0A8F202C0A7F201C0A6F200C0A5F2A7
:1011E0000201AC6BAB6B200EAA6F840EA96F0001DD
:1011F00074DED89280C2A8F27FC2A7F27EC2A6F2A5
:101200007DC2A5F203C0ACF202C0ABF201C0AAF2EB
:1012100000C0A9F262DE03C047F002C046F001C080
:1012200045F000C044F01200020EEA6E810EE96E35
:10123000EF5011E0140E016EBF0E006E0400002E80
:10124000FDD7012EF9D7BF0E006E002EFED700008D
:101250000400EF2EEFD712008B92C950C96AC73035
:10126000FEE3C9CF7DF2C950C96AC730FEE3C9CFDA
:101270007EF28B827DC280F27EC27FF202018031DB
:10128000826F7F31816F8233813382338133823346
:101290008133823381338233813382338133010E50
:1012A000821781C2E0F1010100011200A2C2A9F27D
:1012B0000201A651A91BA9AF05D0D894D890A2BF0E
:1012C000D8802FD0A2C2A9F2A5C2AAF2A151AA5FCA
:1012D00006E0A9AF26D0D850010AD86E22D0A6C207
:1012E000AAF2A251AA5F06E0A9AF1BD0D850010A0A
:1012F000D86E17D0A7C2AAF2A351AA5F06E0A9AF81
:1013000010D0D850010AD86E0CD0A8C2AAF2A451AD
:10131000AA5F06E0A9AF05D0D850010AD86E01D067
:10132000D890000112008E0E006E0201A151005EE5
:10133000A2C202F0A3C201F0028E005209E0D890CE
:10134000025202E1015204E002320132002EF7D7CC
:10135000A2AF05D0011E021E012AD8B4022A000144
:1013600012000201A09194C299F293C298F292C223
:1013700097F291C296F294C2A4F293C2A3F292C2DF
:10138000A2F291C2A1F2A86BA76BA66BA56B00019C
:101390008DDF06E30201A0819751800A976F00015B
:1013A00099C2A4F298C2A3F297C2A2F296C2A1F285
:1013B0000201A86BA76BA66B8E0EA56F000176DFEE
:1013C00001E217E199C2A4F298C2A3F297C2A2F275
:1013D00096C2A1F2A8DF02C0A6F201C0A5F262DDAA
:1013E00003C09DF202C09CF201C09BF200C09AF2C1
:1013F000C7D099C2A4F298C2A3F297C2A2F296C231
:10140000A1F2800E0201A86F960EA76F180EA66FAC
:10141000960EA56F00014ADFD8A0AAD099C2A4F207
:1014200098C2A3F297C2A2F296C2A1F20201A86BDF
:10143000A76BA66B700EA56F0001B9DC03C0A4F208
:1014400002C0A3F201C0A2F200C0A1F26CDF02C090
:101450009FF201C09EF299C2A4F298C2A3F297C271
:10146000A2F296C2A1F20201A86BA76BA66B700E46
:10147000A56F00019CDC03C0A4F202C0A3F201C06E
:10148000A2F200C0A1F29FC2A6F29EC2A5F20ADD9E
:10149000D882A4C2A8F2A3C2A7F2A2C2A6F2A1C295
:1014A000A5F203C0ACF202C0ABF201C0AAF200C0C8
:1014B000A9F213DD0201A46BA36BA26B8E0EA16FC8
:1014C00003C0A8F202C0A7F201C0A6F200C0A5F2B4
:1014D00000016DDC03C099F202C098F201C097F2DE
:1014E00000C096F29FC2A6F29EC2A5F2DBDC02010A
:1014F000A46BA36BA26B8E0EA16F03C0A8F202C0F7
:10150000A7F201C0A6F200C0A5F2000150DC03C0A2
:101510009DF202C09CF201C09BF200C09AF299C2F7
:10152000A4F298C2A3F297C2A2F296C2A1F2FBDE85
:1015300002C0A6F201C0A5F2B5DCD8929DC2A8F205
:101540009CC2A7F29BC2A6F29AC2A5F203C0ACF25B
:1015500002C0ABF201C0AAF200C0A9F2BEDC03C017
:101560009DF202C09CF201C09BF200C09AF208D02A
:1015700099C29DF298C29CF297C29BF296C29AF2CF
:1015800099C2A4F298C2A3F297C2A2F296C2A1F2A3
:10159000CADE02C0A6F201C0A5F284DCD88299C2DC
:1015A000A8F298C2A7F297C2A6F296C2A5F203C00B
:1015B000ACF202C0ABF201C0AAF200C0A9F28DDC0D
:1015C00003C099F202C098F201C097F200C096F2EF
:1015D0000201A0A103D09B51800A9B6F99C2A4F283
:1015E00098C2A3F297C2A2F296C2A1F2A86BA76B0F
:1015F000A66BA56B00015ADE3AE00201A0A11BD048
:10160000955319E1D8829DC2A8F29CC2A7F29BC251
:10161000A6F29AC2A5F2AC6BAB6BAA6B7F0EA96F58
:1016200000015BDC03C09DF202C09CF201C09BF292
:1016300000C09AF20201A0B11BD0952D19D0D8920A
:101640009DC2A8F29CC2A7F29BC2A6F29AC2A5F2C2
:10165000AC6BAB6BAA6B7F0EA96F00013EDC03C0C5
:101660009DF202C09CF201C09BF200C09AF20201FE
:1016700094C2A4F293C2A3F292C2A2F291C2A1F2C6
:10168000A86BA76BA66BA56B000110DE06E102013B
:101690009D6B9C6B9B6B9A6B00019AC200F09BC286
:1016A00001F09CC202F09DC203F0120090C294F2BD
:1016B0008FC293F28EC292F28DC291F2010E02019C
:1016C000956F00014EDE92EF0BF090C294F28FC244
:1016D00093F28EC292F28DC291F20201956B0001DB
:1016E00040DE9CEF0BF08AC203F0020189C28BF24C
:1016F0008AC28CF288C2A4F287C2A3F286C2A2F286
:1017000085C2A1F2A86BA76BA66BA56B0001CEDD0D
:101710000AE388C290F287C28FF286C28EF285C237
:101720008DF2C4D709D088C290F287C28FF286C2E8
:101730008EF285C28DF2C9D78CC2EAFF8BC2E9FF57
:1017400000C0EFFF01C0ECFF02C0ECFF03C0ECFFE4
:101750008AC203F0020189C2E9FF8AC2EAFFEFCF21
:1017600000F0ECCF01F0ECCF02F0ECCF03F0EACFC9
:101770008CF2E9CF8BF2D88288C2A8F287C2A7F296
:1017800086C2A6F285C2A5F203C0ACF202C0ABF2DB
:1017900001C0AAF200C0A9F200016DEC07F08CC2F2
:1017A000EAFF8BC2E9FF5AEF0CF0C66A8B9AD89019
:1017B00002018537866B8651060812E3D89085377B
:1017C00002E28B9A01D08B8A010E876F872FFED79A
:1017D0008B86010E876F872FFED78B96862BEBD7D4
:1017E0008B9A8B84020E876F872FFED78B94C69AB5
:1017F000210EC66E000EC76E000112000201746B4E
:10180000D2C176F2D1C175F20101E3B7AAD076C296
:10181000A6F275C2A5F2000152EC07F003C088F2EF
:1018200002C087F201C086F200C085F203C0A4F2B4
:1018300002C0A3F201C0A2F200C0A1F243C0A8F20C
:1018400042C0A7F241C0A6F240C0A5F2D7EC06F014
:1018500003C088F202C087F201C086F200C085F2A0
:10186000D89203C0A8F202C0A7F201C0A6F200C03D
:10187000A5F247C0ACF246C0ABF245C0AAF244C0E4
:10188000A9F26DEC07F003C084F202C083F201C03C
:1018900082F200C081F284C288F283C287F282C2DF
:1018A00086F281C285F2020E02018A6F790E896F7B
:1018B000000119D703C080F202C07FF201C07EF29E
:1018C00000C07DF280C2A4F27FC2A3F27EC2A2F267
:1018D0007DC2A1F20201A86BA76BA66B7E0EA56F5D
:1018E0000001E4DC0CE37CC2A4F27BC2A3F27AC266
:1018F000A2F279C2A1F217DD01C073F21DD0D89215
:101900007CC2A8F27BC2A7F27AC2A6F279C2A5F283
:101910000201AC6BAB6BAA6B7F0EA96F00016DEC83
:1019200007F003C0A4F202C0A3F201C0A2F200C0FB
:10193000A1F2F9DC01C073F2020176510001B05D41
:101940000CE308E1AF510201755DD8A002D000019F
:1019500004D000016DC273F202D073C26DF206D0E2
:10196000010154C073F273C26DF200010101E3B9C9
:1019700055D0E0C177F20201786BD8907835036AD0
:10198000B80FE96E000E0320EA6EEF50800A006E79
:101990007751800A005C17E3D8907835036A6E0FA0
:1019A000856F000E0320866F010E8525016E000EE7
:1019B0008621036E01504A0FE96E000E0320EA6E85
:1019C000EFCF74F209D0782B78510001B75DD8A021
:1019D00002D00201D2D702010001B7510201785DA5
:1019E0001CE1010E0001B75D006ED890003600507A
:1019F000036A6E0F0201856F000E0320866F010ED1
:101A00008525016E000E8621036E01504A0FE96E96
:101A1000000E0320EA6EEFCF74F20101020174514F
:101A200073253F6E3F507F0802E27F0E3F6E3FC03E
:101A300085F20001BADE12000900F6CF8DF2F7CF71
:101A40008EF2F5509EA8FED7AD6E8DC2F6FF8EC207
:101A5000F7FF02018C2F01D002D00001EDD7000169
:101A60001200EF5210E0EACF7EF2E9CF7DF2EF50A4
:101A70009EA8FED7AD6E7EC2EAFF7DC2E9FFE92ACD
:101A8000D8B4EA2AEED7120002018F51016A8E5DA6
:101A900003E28EC200F00CD0006A080E906F8E3701
:101AA00000368F51005CD8B0006E0136902FF7D70A
:101AB00000011200200E020182A9300E836F81C244
:101AC00000F081AF08D0001E002A00C081F22D0E68
:101AD000836F828F8281015081C28EF2640E8F6F7C
:101AE0000001D2DF00C081F2300E01240201846FB8
:101AF00081C28EF20A0E8F6F0001C6DF300E002405
:101B00000201866F300E0124856F83C200F0300E13
:101B1000845D04E0828382BF828512D083C284F216
:101B2000200E836F300E855D04E0828182BF828348
:101B300007D0D8A4828104E184C285F2200E846F8C
:101B400082B505D082B307D082B109D00CD08351C1
:101B50009EA8FED7AD6E84519EA8FED7AD6E85516E
:101B60009EA8FED7AD6E86519EA8FED7AD6E000131
:101B7000120085C201F084C200F00066012A09004B
:101B8000F5CFEEFF002EFBD7012EF9D7F86A120031
:101B90000201815302E182535BE0F86A7EC2F7FFE3
:101BA0007DC2F6FF020EEA6E830EE96E856B010EB2
:101BB000846F0001DEDF80C203F002017F51E96E15
:101BC00003C0EAFFEF50835D1EE0F86A7EC2F7FFB4
:101BD0007DC2F6FF020EEA6E830EE96E856B010E82
:101BE000846F0001C6DF80C203F002017F51E96EFD
:101BF00003C0EAFFEF50835D02E2FF0E01D0010E49
:101C0000016E28D014D0F86A7EC2F7FF7DC2F6FFBD
:101C1000020EEA6E830EE96E856B010E846F000181
:101C2000A8DF0201835303E1000E016E13D07EC2D0
:101C300003F07D517D2BD8B47E2B80C203F07F5101
:101C40007F2BD8B4802B8151D8B482078107A1D7CC
:101C5000000E016E0001120001508CC28EF2640E63
:101C600002018F6F000110DF00C08CF20150300EB6
:101C700008E102018DA30ED08DB70CD08DB9200ED6
:101C800004D002018D978D998D81012601509EA867
:101C9000FED7AD6E8CC28EF20A0E8F6F0001F4DE9D
:101CA00000C08CF20150300E08E102018DB70BD05C
:101CB0008DA109D08DB9200E0001012601509EA8EA
:101CC000FED7AD6E0201300E8C278C519EA8FED738
:101CD000AD6E0001120080C203F002017FC2E9FF75
:101CE00080C2EAFF8151EF5C12E080C203F07FC244
:101CF000E9FF80C2EAFFEF5204E1000E016E026EBE
:101D00000AD07F2BD8B4802B0001E5D702017FC217
:101D100001F080C202F0000112007DC23DF03A5095
:101D2000300803E1300E3B6E09D00101E55303E1B9
:101D30007DC23BF002D0300E3B6E00011200006A03
:101D4000016A02018A51D8908BB10026003201321B
:101D50008BB30026003201328BB5002600320132EF
:101D60008BB70026003201328BB9002600320132D7
:101D70008BBB0026003201328BBD002600320132BF
:101D80008BBF00260032013200012FEF0FF002015D
:101D9000886B866B0A0E876F856B8351841103E114
:101DA000000E016EBBD08851882B8325E96E000E92
:101DB0008421EA6EEFCF89F289512D080CE1010EE2
:101DC000866F8851882B8325E96E000E8421EA6E88
:101DD000EFCF89F20CD089512B0809E18851882B6B
:101DE0008325E96E000E8421EA6EEFCF89F28951D6
:101DF0002F08D8B08BD089513908D8A087D0895105
:101E000030081EE188518325E96E000E8421EA6EB8
:101E1000EF50780809E088518325E96E000E84218F
:101E2000EA6EEF5058080CE1100E876F882B88512E
:101E3000882B8325E96E000E8421EA6EEFCF89F2AC
:101E400087510A081CE189512F0818E28951390885
:101E500015E30A0E8A6F85C28BF2000170D7300E2F
:101E60000201895D0124856F8851882B8325E96EE5
:101E7000000E8421EA6EEFCF89F2E5D747D0875173
:101E8000100844E18951600806E289517A0803E3A9
:101E90008951DF0B01D08951896F89512F0803E2E5
:101EA0008951390806E28951400830E289514608D3
:101EB0002DE389512F080CE28951390809E385394E
:101EC0008A6FF00E8A17300E895D8A25856F09D0DA
:101ED00085398A6FF00E8A17410E895D0A0F8A25AF
:101EE000856F8851882B8325E96E000E8421EA6E68
:101EF000EFCF89F28951600806E289517A0803E33D
:101F00008951DF0B01D08951896FC7D7862D04D045
:101F100087510A0801E1856D85C201F000011200B8
:101F200002019651D8B4A5D0A26F9A51D8B4A1D0CD
:101F3000A25F05E37F0EA227D8B09BD006D0810E0A
:101F4000A25FD8A096D0D8B494D0A2C200F0016A03
:101F5000026A036AA16B97C2A0F2A08F98C29FF297
:101F600099C29EF2190EA26F9D519E5F0DE2010E65
:101F70009F5F0AE2A05F08E2A15F06E2A12BA02B0F
:101F80009F2B9D519E2728D09C519F5F12E2010EEE
:101F9000A05F0FE2A15F0DE2A12BA02B9C519F2718
:101FA0009D519E2719E39F2B17E1A02B15E1A12B33
:101FB00013D09B518009A05F0EE2010EA15F0BE2DE
:101FC000A12B9B518009A0279C519F27E9E3A02BBF
:101FD000E7E1A12BE5D70380A22F01D00BD0D89049
:101FE0009E379F37A037A137D89003360236013687
:101FF000A337BAD7A3A106D0D89001320232033258
:10200000A33302D0000635E0A3BF1ED0D8909E3780
:102010009F37A037A1379D519E5F07E2010E9F5F5A
:1020200004E2A05F02E2A15F1AE39C519F5F05E218
:10203000010EA05F02E2A15F12E39B518009A05F45
:1020400003E2010EA15F0BE3032A09E1022A07E183
:10205000012A05E1002A0DE001320232033297C263
:10206000A2F29B51A21BA2AF02D0018E06D0019E0C
:1020700004D0006A016A026A036A0001C3EF10F02B
:1020800002018A6B896B886B7F0E876F8E6B8D6BFD
:102090008C6B8B6B8F818F938F95916B8351841198
:1020A00005E1006A016A026A036A14D19151912B19
:1020B0008325E96E000E8421EA6EEFCF90F29053F3
:1020C000D8B4CAD08FA10FD0905120080CE08F91C6
:1020D00090512B0803E18F93B3D005D090512D0878
:1020E00002E18F83ADD08FB107D090512E0804E16B
:1020F0008FB502D08F85A4D08FB19FD090512F087B
:10210000D8B09BD090513908D8A097D0300E905FAE
:102110008FA556D08AC2A4F289C2A3F288C2A2F2C5
:1021200087C2A1F2A86BA76B200EA66F820EA56FC7
:102130000001D7EC06F003C08AF202C089F201C0A8
:1021400088F200C087F20201A66B90C2A5F20001DE
:1021500052EC07F003C095F202C094F201C093F272
:1021600000C092F203C099F202C098F201C097F247
:1021700000C096F28AC29DF289C29CF288C29BF28C
:1021800087C29AF2CDD6D8928EC2A8F28DC2A7F29B
:102190008CC2A6F28BC2A5F203C0ACF202C0ABF2B5
:1021A00001C0AAF200C0A9F26DEC07F003C08EF2E4
:1021B00002C08DF201C08CF200C08BF23CD0020153
:1021C000A46BA36B200EA26F820EA16F8EC2A8F229
:1021D0008DC2A7F28CC2A6F28BC2A5F20001D7EC89
:1021E00006F003C095F202C094F201C093F200C061
:1021F00092F20201A66B90C2A5F2000152EC07F028
:10220000D89295C2A8F294C2A7F293C2A6F292C243
:10221000A5F203C0ACF202C0ABF201C0AAF200C04A
:10222000A9F26DEC07F003C08EF202C08DF201C07E
:102230008CF200C08BF205D002018FB101D00CD01E
:10224000000102019151912B8325E96E000E84213A
:10225000EA6EEFCF90F233D78FA31AD0A46BA36BA3
:10226000800EA26F7F0EA16F8EC2A8F28DC2A7F260
:102270008CC2A6F28BC2A5F20001D7EC06F003C017
:102280008EF202C08DF201C08CF200C08BF202010E
:102290008551861117E091530CE0910785C2E9FF43
:1022A00086C2EAFF91518325EF6E000E8421EC6E09
:1022B00009D085C2E9FF86C2EAFF84C2ECFFED5275
:1022C00083C2EFFF8BC200F08CC201F08DC202F01E
:1022D0008EC203F00001120002019951B608996FF5
:1022E000036A9AC29DF29A8FD8909A339B339C339B
:1022F0000332023201320032992FF6D79DAF0BD054
:10230000001E011E021E031E002AD8B4012AD8B4E2
:10231000022AD8B4032A000104EF12F0D8B204D084
:10232000020EEA6EA10EE96E006A016A026A036A91
:102330000201A16BA26BA36BA46BA0519F119E1114
:102340009D112CE0200EA56FD89099379A379B37B6
:102350009C37A137A237A337A437A051A45D08E169
:102360009F51A35D05E19E51A25D02E19D51A15DDA
:102370000FE39D51A15F9E51D8A09E3DA25F9F514A
:10238000D8A09F3DA35FA051D8A0A03DA45FD88056
:102390000036013602360336A52FD6D7A1C2EFFF8D
:1023A000A2C2ECFFA3C2ECFFA4C2ECFF000112002A
:1023B000E9500201916F9051936F1CE08FC2A4F21B
:1023C0008EC2A3F28DC2A2F28CC2A1F2A86BA76B3F
:1023D000200EA66F820EA56F0001D7EC06F003C099
:1023E0008FF202C08EF201C08DF200C08CF20201A9
:1023F000932FE4D78FC29CF28EC29BF28DC29AF2C9
:102400008CC299F2000168D703C08FF202C08EF22D
:1024100001C08DF200C08CF202018FAF0DD0910788
:10242000918B8C1F8D1F8E1F8F1F8C2BD8B48D2BE3
:10243000D8B48E2BD8B48F2B3B0E986F9A0E976F13
:10244000CA0E966F956B0A0E936F9051D8B4912B6C
:10245000D882020EEA6E8C0EE96E8FC29CF28EC29A
:102460009BF28DC29AF28CC299F298C2A0F297C2E6
:102470009FF296C29EF295C29DF200014FDF01507D
:10248000005213E102019029935DD8A402D000010B
:102490000CD091510DE00F0B935D01E03CE291BF38
:1024A0003AD091BD05D0200E31D0200E02019117F7
:1024B00091AB0DD0919B9051D8A491070050916F92
:1024C0002D0E9EA8FED7AD6E9151006E916B90516E
:1024D000935D0BE10050916F2E0E9EA8FED7AD6E5E
:1024E0009151006E200E9117000E300E91AB0ED060
:1024F000919B9051D8A491070050916F2D0E9EA8EA
:10250000FED7AD6E9151006E916B300E00260050DB
:102510009EA8FED7AD6ED89298C29CF297C29BF24D
:1025200096C29AF295C299F2A06B9F6B9E6B0A0EAF
:102530009D6F0001F3DE03C098F202C097F201C064
:1025400096F200C095F20201932F82D7000112008B
:10255000EACF85F2E9CF84F202017E39F009806F7B
:102560008027E20F816F320F836F7E510F0B81271F
:1025700081278327E90F826F822782277D390F0BFE
:102580008227832782378337831F83377D510F0B41
:1025900083278037070E7F6F0A0E82078327FDE3AC
:1025A00081078227FDE380078127FDE37F078027DE
:1025B000FDE3020EEA6E7F0EE96E070E8415849D20
:1025C000E926000EEA22E950830804E1EA500208F5
:1025D00001E1848DEF50006E08E184BD06D084B91E
:1025E0000CD084B702D0200E03D084878499300E9B
:1025F000002600509EA8FED7AD6EEE5084ADE3D706
:1026000000011200036A02017D51CC0FE96E010E38
:102610000320EA6EEFCF7EF27EC28CFF020E816F46
:10262000000114EC09F08C946F506F6A6D30FEE37A
:102630006FCFBBF26F506F6A6D30FEE36FCFBCF2AD
:102640008C840201BB51070BBE6FBCC2BDF2BBB78D
:1026500002D0080EBE27BDC201F0BEC202F0025079
:102660000001FCEF1FF0020188518A19800B8C6F6A
:1026700088AF05D0871F881F872BD8B4882B8AAFD7
:1026800005D0891F8A1F892BD8B48A2B87518903CB
:10269000F3CF01F0F4CF00F08A03F3500026885105
:1026A0008903F3500020026E8CAF05D0011E021E7C
:1026B000012AD8B4022A0001CBEF13F00201856B86
:1026C000836B0A0E846F826B816B7F51801104E1F2
:1026D000000E016E026EE2D08551852B7F25E96EDA
:1026E000000E8021EA6EEFCF86F286512D080CE1B4
:1026F000010E836F8551852B7F25E96E000E8021A9
:10270000EA6EEFCF86F20CD086512B0809E1855195
:10271000852B7F25E96E000E8021EA6EEFCF86F2D1
:1027200086512F08D8B0ACD086513908D8A0A8D08F
:10273000865130081EE185517F25E96E000E80210B
:10274000EA6EEF50780809E085517F25E96E000EAA
:102750008021EA6EEF5058080CE1100E846F852B33
:102760008551852B7F25E96E000E8021EA6EEFCF23
:1027700086F284510A0822E186512F081EE2865112
:1027800039081BE3886B0A0E876F82C28AF281C206
:1027900089F2000168D7300E0201865D0124816F45
:1027A000000E0220826F8551852B7F25E96E000E79
:1027B0008021EA6EEFCF86F2DFD762D08451100815
:1027C0005FE18651600806E286517A0803E386518C
:1027D000DF0B01D08651866F86512F0803E28651A8
:1027E000390806E2865140084BE28651460848E324
:1027F00086512F081AE28651390817E38135876F11
:102800008235886F873788378737883787378837A3
:10281000F00E8717300E865D8725016E000E882129
:10282000036E01C081F2826F16D08135876F8235C9
:10283000886F873788378737883787378837F00E2C
:102840008717410E865D0A0F8725016E000E8821CD
:1028500001C081F2826F8551852B7F25E96E000EC4
:102860008021EA6EEFCF86F28651600806E286513B
:102870007A0803E38651DF0B01D08651866FACD70F
:1028800084510A0807E1832D05D0811F821F812B07
:10289000D8B4822B81C201F082C202F00001120082
:1028A0000900F5520DE0F6CF7DF2F7CF7EF2F5503C
:1028B0009EA8FED7AD6E7DC2F6FF7EC2F7FFF0D7B1
:1028C000120002017D517F03F3CF01F0F4CF00F03D
:1028D0008003F35000267E517F03F3500020026EE8
:1028E0000001120002017C6B04007E69FC0E7D6F0A
:1028F000010E806F400E7F6F826B030E816F0001AF
:10290000C8EC0DF00152D8A4AFD1010143513F08EA
:10291000D8B46AD143C17DF244C17EF235C07FF2A2
:1029200002017E51300802E1000E01D0010E8091BB
:10293000E8B080817D51410824E17E51300805E1F5
:10294000300E3A6E3C6E3B6E1CD07E51310816E163
:10295000310E3C6E0101E55306E13650310803E1CA
:102960003850300803E161C0E5F113D1310E3A6E01
:102970003D50310802E1310E3B6E02D0010109D118
:1029800002017D51310A000110E0030A1BE0010A37
:1029900026E0070A31E0010A3CE0030A47E0660A44
:1029A00052E0110AD8B477D0AED001013B97DF9145
:1029B000020180A102D00101DF810101DFA101D06C
:1029C0003B87A2D001013B91DF93020180A102D09D
:1029D0000101DF830101DFA301D03B8195D001011B
:1029E0003C9FDF95020180A102D00101DF8501013A
:1029F000DFA501D03C8F88D001013C9DDF9702010B
:102A000080A102D00101DF870101DFA701D03C8D49
:102A10007BD001013C9BDF99020180A102D0010122
:102A2000DF890101DFA901D03C8B6ED001013C9907
:102A3000DF9B020180A102D00101DF8B0101DFAB2E
:102A400001D03C8961D001013B973B913C9F3C9D6B
:102A5000020180A102D001013C8D01013CAD01D0F9
:102A60003C8F3CAF01D03B813BA101D03B87DF9144
:102A7000DF93DF95DF97020180A102D00101DF879C
:102A80000101DFA701D0DF85DFA501D0DF83DFA350
:102A900001D0DF8139D001013B973B913C9F3C9DA8
:102AA0003C9B3C99020180A102D001013C890101BB
:102AB0003CA901D03C8B3CAB01D03C8D3CAD01D05E
:102AC0003C8F3CAF01D03B813BA101D03B87DF91E4
:102AD000DF93DF95DF97DF99DF9B020180A102D0B2
:102AE0000101DF8B0101DFAB01D0DF89DFA901D05C
:102AF000DF87DFA701D0DF85DFA501D0DF83DFA37C
:102B000001D0DF8101D00101F29CF29EF2BEFDD71F
:102B1000196AF2BE198EF29E0201B96B0001CBEC6C
:102B200001F019BEF28E02017E51300806E17D519E
:102B3000410803E101013B9902013BC189FF320ECB
:102B4000816F000114EC09F03BC189FF3CC18AFF91
:102B500004000A0E0201816F000114EC09F0020169
:102B60007E51310803E101013B8902013BC189FF2C
:102B70000A0E816F000114EC09F07FC235F00101EB
:102B8000E395A19A9E92A1927E94F292F090C00E4B
:102B9000F2124351410828E14451385D25E044C117
:102BA00038F1EE0E4824016E000E4920036E0150EC
:102BB00002017D6F03C07EF2F250006EF29E7EC273
:102BC000AAFF7DC2A9FF38C1A8FFA69CA69EA68425
:102BD0000F01550EA76EAA0EA76EA682A6B2FED74B
:102BE000A6940050F21201014351410821E1F20E76
:102BF000F66E070EF76E040E02018C6F00011CECDE
:102C00000DF0EA6A350EE96E31EC0DF0200E9EA84B
:102C1000FED7AD6EE0C181F2180E0201826F000195
:102C20005AEC0DF00D0E9EA8FED7AD6E1BD0010123
:102C3000FE0EF66E070EF76E040E02018C6F000199
:102C40001CEC0DF0DFC18CF21B0E02018D6F000138
:102C50002CEC0EF0200E9EA8FED7AD6E0D0E9EA899
:102C6000FED7AD6E7EEF2BF002017E69F80E7D6F10
:102C7000010E806F400E7F6F826B030E816F00012B
:102C8000C8EC0DF00152D8A483D0010E0201806F70
:102C9000400E7F6F200E816F00016BEC0EF002C0C2
:102CA0007BF201C07AF2010E02017A25016E000E5C
:102CB0007B2101C0E9FFEA6EEFCF77F27751300850
:102CC00003E07751310862E177C27DF200018DECBB
:102CD0000EF00201756B746B755113080EE303E17E
:102CE000745187080AE30400040E006E002EFED71C
:102CF00000D0742BD8B4752BEFD7080EF66E080EE3
:102D0000F76E040E8C6F00011CEC0DF0EA6A350EB4
:102D1000E96E31EC0DF0200E9EA8FED7AD6EE0C13D
:102D200081F2180E0201826F00015AEC0DF00D0EB7
:102D30009EA8FED7AD6E020177510101395D25E0F5
:102D400077C239F1EF0E4824016E000E4920036E60
:102D5000015002017D6F03C07EF2F250006EF29EC0
:102D60007EC2AAFF7DC2A9FF39C1A8FFA69CA69E6C
:102D7000A6840F01550EA76EAA0EA76EA682A6B254
:102D8000FED7A6940050F212010102017FEF2BF052
:102D900002017E69F40E7D6F010E806F400E7F6F21
:102DA000826B030E816F0001C8EC0DF0015277E1D8
:102DB000010143513F0843E0010E0201806F400EC4
:102DC0007F6F200E816F00016BEC0EF002C07BF272
:102DD00001C07AF2010E02017A257D6F000E7B217F
:102DE0007E6F846F7DC283F20001C7EC0EF001C0DC
:102DF00054F00A0E4824016E000E4920036E015063
:102E000002017D6F03C07EF2F250006EF29E7EC220
:102E1000AAFF7DC2A9FF54C0A8FFA69CA69EA684B7
:102E20000F01550EA76EAA0EA76EA682A6B2FED7F8
:102E3000A6940050F2120001A9EC08F001010A0E5C
:102E40004824016E000E4920036E015002017D6F7F
:102E500003C07EF2F2CF7FF2F29E7EC2AAFF7DC255
:102E6000A9FFA69CA69EA680A8507FBFF28E546E96
:102E7000140EF66E080EF76E040E8C6F00011CEC3B
:102E80000DF054C08CF21B0E02018D6F00012CEC72
:102E90000EF00D0E9EA8FED7AD6E7EEF2BF0020158
:102EA0007E69F00E7D6F010E806F400E7F6F826B2A
:102EB000030E816F0001C8EC0DF001523EE10101EB
:102EC00043513F0822E0010E0201806F400E7F6FE8
:102ED000200E816F00016BEC0EF002C07BF201C08E
:102EE0007AF2010E02017A257D6F000E7B217E6F42
:102EF000846F7DC283F20001C7EC0EF001C03FF089
:102F00003FC085F2D5EC0BF001011C0EF66E080EE9
:102F1000F76E040E02018C6F00011CEC0DF03FC037
:102F20008CF21B0E02018D6F00012CEC0EF00D0EC9
:102F30009EA8FED7AD6E7EEF2BF002017E69EC0EEF
:102F40007D6F010E806F400E7F6F826B030E816F6D
:102F50000001C8EC0DF001526BE1010143513F0843
:102F600039E0010E0201806F400E7F6F200E816FED
:102F700000016BEC0EF002C07BF201C07AF2010E90
:102F800002017A25016E000E7B21036E01C0E9FF6C
:102F9000EA6EEF50300804E10101E38709D0020135
:102FA0003550320803E10101E38702D00101E397C4
:102FB000020E02017A25016E000E7B21036E01C014
:102FC000E9FFEA6EEF50300803E10101E38902D026
:102FD0000101E399000EE3A7010E02017D6F000ECF
:102FE0000101E3A9010E02017E6F240EF66E080EA8
:102FF000F76E040E8C6F00011CEC0DF07DC28CF29C
:103000001B0E02018D6F00012CEC0EF0200E9EA80D
:10301000FED7AD6E7EC28CF21B0E02018D6F0001D9
:103020002CEC0EF00D0E9EA8FED7AD6E7EEF2BF0B1
:1030300002017E69E80E7D6F010E806F400E7F6F8A
:10304000826B030E816F0001C8EC0DF00152D8A411
:1030500064D2010143513508D8A402D144513F083C
:10306000D8B4C6D0010E0201806F400E7F6F200ED3
:10307000816F00016BEC0EF002C07BF201C07AF2AE
:10308000010E02017A257D6F000E7B217E6F846F19
:103090007DC283F20001C7EC0EF001C04EF0010EBC
:1030A00002017A257D6F000E7B217E6F806F7DC2CD
:1030B0007FF2200E816F00016BEC0EF002C07BF2FC
:1030C00001C07AF2010E02017A257D6F000E7B218C
:1030D0007E6F846F7DC283F20001C7EC0EF001C0E9
:1030E0004FF0010E02017A257D6F000E7B217E6F6D
:1030F000806F7DC27FF2200E816F00016BEC0EF0BD
:1031000002C07BF201C07AF2010E02017A257D6FC6
:10311000000E7B217E6F846F7DC283F2866B856B90
:10312000000140EC10F003C065F002C064F001C083
:1031300063F000C062F0040E4824016E000E4920C6
:10314000036E015002017D6F03C07EF2F250006EEB
:10315000F29E7EC2AAFF7DC2A9FF4EC0A8FFA69C18
:10316000A69EA6840F01550EA76EAA0EA76EA68274
:10317000A6B2FED7A6940050F212050E4824016EA6
:10318000000E4920036E015002017D6F03C07EF2E4
:10319000F250006EF29E7EC2AAFF7DC2A9FF4FC010
:1031A000A8FFA69CA69EA6840F01550EA76EAA0E88
:1031B000A76EA682A6B2FED7A6940050F212180EF1
:1031C0004824016E000E4920036E01C07DF2020109
:1031D0007E6F806B620E7F6F01C085F280C287F2C6
:1031E000866F896B040E886F00010CEC05F00101FD
:1031F000300EF66E080EF76E050E02018C6F0001A0
:103200001CEC0DF04EC08CF21B0E02018D6F000104
:103210002CEC0EF0200E9EA8FED7AD6E4FC08CF2A7
:103220001B0E02018D6F00012CEC0EF0200E9EA8EB
:10323000FED7AD6E040EE96E65C08FF264C08EF2EB
:1032400063C08DF262C08CF2030E0201906F000128
:10325000D8EC11F00D0E9EA8FED7AD6E5BD101012A
:1032600043513308D8A457D144513F08D8B408D1AA
:10327000010E0201806F400E7F6F200E816F0001F2
:103280006BEC0EF002C07BF201C07AF2010E02017B
:103290007A257D6F000E7B217E6F846F7DC283F265
:1032A0000001C7EC0EF001C04CF0010E02017A25BE
:1032B0007D6F000E7B217E6F806F7DC27FF2200EBE
:1032C000816F00016BEC0EF002C07BF201C07AF25C
:1032D000010E02017A257D6F000E7B217E6F846FC7
:1032E0007DC283F20001C7EC0EF001C04DF0010E6B
:1032F00002017A257D6F000E7B217E6F806F7DC27B
:103300007FF2200E816F00016BEC0EF002C07BF2A9
:1033100001C07AF2010E02017A257D6F000E7B2139
:103320007E6F846F7DC283F2866B856B000140ECFB
:1033300010F003C0A5F002C0A4F001C0A3F000C0CB
:10334000A2F0010E02017A257D6F000E7B217E6FB7
:10335000806F7DC27FF2200E816F00016BEC0EF05A
:1033600002C07BF201C07AF2010E02017A257D6F64
:10337000000E7B217E6F846F7DC283F2866B856B2E
:10338000000140EC10F003C0A9F002C0A8F001C099
:10339000A7F000C0A6F0020E4824016E000E4920DE
:1033A000036E015002017D6F03C07EF2F250006E89
:1033B000F29E7EC2AAFF7DC2A9FF4CC0A8FFA69CB8
:1033C000A69EA6840F01550EA76EAA0EA76EA68212
:1033D000A6B2FED7A6940050F212030E4824016E46
:1033E000000E4920036E015002017D6F03C07EF282
:1033F000F250006EF29E7EC2AAFF7DC2A9FF4DC0B0
:10340000A8FFA69CA69EA6840F01550EA76EAA0E25
:10341000A76EA682A6B2FED7A6940050F212580E4E
:103420004824016E000E4920036E01C07DF20201A6
:103430007E6F806BA20E7F6F01C085F280C287F223
:10344000866F896B040E886F00010CEC05F05C0E32
:103450004824016E000E4920036E01C07DF2020176
:103460007E6F806BA60E7F6F01C085F280C287F2EF
:10347000866F896B040E886F00010CEC05F001016A
:10348000420EF66E080EF76E050E02018C6F0001FB
:103490001CEC0DF04CC08CF21B0E02018D6F000174
:1034A0002CEC0EF0200E9EA8FED7AD6E4DC08CF217
:1034B0001B0E02018D6F00012CEC0EF0200E9EA859
:1034C000FED7AD6E890EE96EA5C08FF2A4C08EF254
:1034D000A3C08DF2A2C08CF2060E0201906F000113
:1034E000D8EC11F0200E9EA8FED7AD6E890EE96EC5
:1034F000A9C08FF2A8C08EF2A7C08DF2A6C08CF230
:10350000060E0201906F0001D8EC11F00D0E9EA87E
:10351000FED7AD6E01017EEF2BF002017E69E40E55
:103520007D6F010E806F400E7F6F826B030E816F87
:103530000001C8EC0DF00152D8A4DDD001014351C7
:103540003F08D8B484D0010E0201806F400E7F6F17
:10355000200E816F00016BEC0EF002C07BF201C007
:103560007AF2010E02017A257D6F000E7B217E6FBB
:10357000846F7DC283F20001C7EC0EF001C055F0EC
:10358000010E02017A257D6F000E7B217E6F806F18
:103590007DC27FF2200E816F00016BEC0EF002C045
:1035A0007BF201C07AF2010E02017A257D6F000ED6
:1035B0007B217E6F846F7DC283F20001C7EC0EF029
:1035C00001C056F00B0E4824016E000E4920036E18
:1035D000015002017D6F03C07EF2F250006EF29E38
:1035E0007EC2AAFF7DC2A9FF55C0A8FFA69CA69EC9
:1035F000A6840F01550EA76EAA0EA76EA682A6B2CC
:10360000FED7A6940050F2120C0E4824016E000E54
:103610004920036E015002017D6F03C07EF2F2501B
:10362000006EF29E7EC2AAFF7DC2A9FF56C0A8FF0F
:10363000A69CA69EA6840F01550EA76EAA0EA76E85
:10364000A682A6B2FED7A6940050F21201010B0E7C
:103650004824016E000E4920036E015002017D6F67
:1036600003C07EF2F2CF7FF2F29E7EC2AAFF7DC23D
:10367000A9FFA69CA69EA680A8507FBFF28E556E7D
:103680000C0E4824016E000E4920036E01507D6F20
:1036900003C07EF2F2CF7FF2F29E7EC2AAFF7DC20D
:1036A000A9FFA69CA69EA680A8507FBFF28E566E4C
:1036B0005A0EF66E080EF76E040E8C6F00011CECAD
:1036C0000DF055C081F2180E0201826F00015AEC14
:1036D0000DF0200E9EA8FED7AD6E56C081F2180EDA
:1036E0000201826F00015AEC0DF00D0E9EA8FED76C
:1036F000AD6E7EEF2BF002017E69E00E7D6F010E54
:10370000806F400E7F6F826B030E816F0001C8ECEB
:103710000DF0015240E12CEC09F0E1C1E0F155500F
:10372000800A006E0101E051800A005C0AE2896AA9
:103730008A6A3B6B3C6BDF6BE381E383300E366E52
:1037400012D05650800A006EE051800A005C08E2F8
:10375000E3A303D0330E366E02D0320E366E03D0A2
:10376000310E366EE393660EF66E080EF76E040E9B
:1037700002018C6F00011CEC0DF0E0C181F2180E0B
:103780000201826F00015AEC0DF00D0E9EA8FED7CB
:10379000AD6E7EEF2BF002017E69DC0E7D6F010EB7
:1037A000806F400E7F6F826B030E816F0001C8EC4B
:1037B0000DF00152D8A449D1010143513F08D8B4BA
:1037C000C8D0010E0201806F400E7F6F200E816F06
:1037D00000016BEC0EF002C07BF201C07AF2010E28
:1037E00002017A257D6F000E7B217E6F846F7DC282
:1037F00083F20001C7EC0EF001C05FF0010E020180
:103800007A257D6F000E7B217E6F806F7DC27FF2F7
:10381000200E816F00016BEC0EF002C07BF201C044
:103820007AF2010E02017A257D6F000E7B217E6FF8
:10383000846F7DC283F20001C7EC0EF001C060F01E
:10384000010E02017A257D6F000E7B217E6F806F55
:103850007DC27FF2200E816F00016BEC0EF002C082
:103860007BF201C07AF2010E02017A257D6F000E13
:103870007B217E6F846F7DC283F20001C7EC0EF066
:1038800001C061F0150E4824016E000E4920036E40
:10389000015002017D6F03C07EF2F250006EF29E75
:1038A0007EC2AAFF7DC2A9FF5FC0A8FFA69CA69EFC
:1038B000A6840F01550EA76EAA0EA76EA682A6B209
:1038C000FED7A6940050F212160E4824016E000E88
:1038D0004920036E015002017D6F03C07EF2F25059
:1038E000006EF29E7EC2AAFF7DC2A9FF60C0A8FF43
:1038F000A69CA69EA6840F01550EA76EAA0EA76EC3
:10390000A682A6B2FED7A6940050F212170E482443
:10391000016E000E4920036E015002017D6F03C04D
:103920007EF2F250006EF29E7EC2AAFF7DC2A9FF17
:1039300061C0A8FFA69CA69EA6840F01550EA76E87
:10394000AA0EA76EA682A6B2FED7A6940050F212C7
:103950000101150E4824016E000E4920036E01502E
:1039600002017D6F03C07EF2F2CF7FF2F29E7EC233
:10397000AAFF7DC2A9FFA69CA69EA680A8507FBFD5
:10398000F28E5F6E160E4824016E000E4920036E03
:1039900001507D6F03C07EF2F2CF7FF2F29E7EC2B5
:1039A000AAFF7DC2A9FFA69CA69EA680A8507FBFA5
:1039B000F28E0001606F170E4824016E000E492040
:1039C000036E015002017D6F03C07EF2F2CF7FF2E1
:1039D000F29E7EC2AAFF7DC2A9FFA69CA69EA680DB
:1039E000A8507FBFF28E0001616F6E0EF66E080E5A
:1039F000F76E040E02018C6F00011CEC0DF05FC02D
:103A00008CF21B0E02018D6F00012CEC0EF0200ECB
:103A10009EA8FED7AD6E60C08CF21B0E02018D6FAA
:103A200000012CEC0EF0200E9EA8FED7AD6E61C0FA
:103A30008CF21B0E02018D6F00012CEC0EF00D0EAE
:103A40009EA8FED7AD6E7EEF2BF002017E69D80EE8
:103A50007D6F010E806F400E7F6F826B030E816F52
:103A60000001C8EC0DF00152D8A47AD001014351F5
:103A70003F0842E0010E0201806F400E7F6F200E72
:103A8000816F00016BEC0EF002C07BF201C07AF294
:103A9000010E02017A257D6F000E7B217E6F846FFF
:103AA0007DC283F20001C7EC0EF001C04BF0010EA5
:103AB0004824016E000E4920036E015002017D6F03
:103AC00003C07EF2F250006EF29E7EC2AAFF7DC25B
:103AD000A9FF4BC0A8FFA69CA69EA6840F01550E69
:103AE000A76EAA0EA76EA682A6B2FED7A694005015
:103AF000F2124BC040FF0101010E4824016E000E7E
:103B00004920036E015002017D6F03C07EF2F2CFA7
:103B10007FF2F29E7EC2AAFF7DC2A9FFA69CA69E4E
:103B2000A680A8507FBFF28E4B6E7C0EF66E080EFC
:103B3000F76E040E8C6F00011CEC0DF04BC08CF284
:103B40001B0E02018D6F00012CEC0EF0200E9EA8C2
:103B5000FED7AD6E0D0E9EA8FED7AD6E7EEF2BF09C
:103B600002017E69D40E7D6F010E806F400E7F6F63
:103B7000826B030E816F0001C8EC0DF00152D8A4D6
:103B80004BD1010143513F08D8B4C8D0010E020106
:103B9000806F400E7F6F200E816F00016BEC0EF086
:103BA00002C07BF201C07AF2010E02017A257D6F1C
:103BB000000E7B217E6F846F7DC283F20001C7EC13
:103BC0000EF001C0ACF0010E02017A257D6F000EEF
:103BD0007B217E6F806F7DC27FF2200E816F00019E
:103BE0006BEC0EF002C07BF201C07AF2010E020112
:103BF0007A257D6F000E7B217E6F846F7DC283F2FC
:103C00000001C7EC0EF001C0ADF0010E02017A25F3
:103C10007D6F000E7B217E6F806F7DC27FF2200E54
:103C2000816F00016BEC0EF002C07BF201C07AF2F2
:103C3000010E02017A257D6F000E7B217E6F846F5D
:103C40007DC283F20001C7EC0EF001C0AEF0620E3F
:103C50004824016E000E4920036E015002017D6F61
:103C600003C07EF2F250006EF29E7EC2AAFF7DC2B9
:103C7000A9FFACC0A8FFA69CA69EA6840F01550E66
:103C8000A76EAA0EA76EA682A6B2FED7A694005073
:103C9000F212630E4824016E000E4920036E01509B
:103CA00002017D6F03C07EF2F250006EF29E7EC272
:103CB000AAFF7DC2A9FFADC0A8FFA69CA69EA684B0
:103CC0000F01550EA76EAA0EA76EA682A6B2FED74A
:103CD000A6940050F212640E4824016E000E492092
:103CE000036E015002017D6F03C07EF2F250006E40
:103CF000F29E7EC2AAFF7DC2A9FFAEC0A8FFA69C0D
:103D0000A69EA6840F01550EA76EAA0EA76EA682C8
:103D1000A6B2FED7A6940050F2120101620E48240A
:103D2000016E000E4920036E015002017D6F03C039
:103D30007EF2F2CF7FF2F29E7EC2AAFF7DC2A9FF81
:103D4000A69CA69EA680A8507FBFF28E0001AC6FF5
:103D5000630E4824016E000E4920036E01500201DB
:103D60007D6F03C07EF2F2CF7FF2F29E7EC2AAFF89
:103D70007DC2A9FFA69CA69EA680A8507FBFF28EFA
:103D80000001AD6F640E4824016E000E4920036EE1
:103D9000015002017D6F03C07EF2F2CF7FF2F29EEE
:103DA0007EC2AAFF7DC2A9FFA69CA69EA680A8509F
:103DB0007FBFF28E0001AE6F860EF66E080EF76EB4
:103DC000040E02018C6F00011CEC0DF0ACC08CF2F3
:103DD0001B0E02018D6F00012CEC0EF0200E9EA830
:103DE000FED7AD6EADC08CF21B0E02018D6F0001CF
:103DF0002CEC0EF0200E9EA8FED7AD6EAEC08CF25D
:103E00001B0E02018D6F00012CEC0EF00D0E9EA812
:103E1000FED7AD6E7EEF2BF002017E69D00E7D6F76
:103E2000010E806F400E7F6F826B030E816F000169
:103E3000C8EC0DF0015257E1010143513F0833E056
:103E4000010E0201806F400E7F6F200E816F000116
:103E50006BEC0EF002C07BF201C07AF2010E02019F
:103E60007A25016E000E7B21036E01C0E9FFEA6E28
:103E7000EF5031080DE1196AF2BE198EF29E010E63
:103E8000B96F0001CBEC01F019BEF28E0BD002012C
:103E9000196AF2BE198EF29EB96B0001CBEC01F0EB
:103EA00019BEF28E0101000E81B6010E02017D6F76
:103EB000940EF66E080EF76E040E8C6F00011CEC6B
:103EC0000DF07DC28CF21B0E02018D6F00012CECF7
:103ED0000EF0200E9EA8FED7AD6E0D0E9EA8FED74A
:103EE000AD6E7EEF2BF002017E69CC0E7D6F010E70
:103EF000806F400E7F6F826B030E816F0001C8ECF4
:103F00000DF0015248E19E0EF66E080EF76E040E9B
:103F100002018C6F00011CEC0DF0100EE96ED2C195
:103F20007EF2D1C17DF2A8EC12F0200E9EA8FED741
:103F3000AD6E100EE96ED4C17EF2D3C17DF2A8EC55
:103F400012F0200E9EA8FED7AD6E100EE96ED6C1FF
:103F50007EF2D5C17DF2A8EC12F0200E9EA8FED70D
:103F6000AD6E100EE96ED8C17EF2D7C17DF2A8EC1D
:103F700012F0200E9EA8FED7AD6E100EE96EDAC1CB
:103F80007EF2D9C17DF2A8EC12F00D0E9EA8FED7EC
:103F9000AD6E7EEF2BF002017E69C80E7D6F010EC3
:103FA000806F400E7F6F826B030E816F0001C8EC43
:103FB0000DF0015249E1010E0201806F400E7F6F4A
:103FC000200E816F00016BEC0EF002C07BF201C08D
:103FD0007AF2010E02017A257D6F000E7B217E6F41
:103FE000846F7DC283F20001C7EC0EF001C076F24F
:103FF00076C27DF202EF13F002C079F201C078F2CE
:10400000B80EF66E080EF76E040E02018C6F0001FA
:104010001CEC0DF076C28CF21B0E02018D6F0001BC
:104020002CEC0EF0200E9EA8FED7AD6E100EE96EA1
:1040300079C27EF278C27DF2A8EC12F00D0E9EA835
:10404000FED7AD6E7EEF2BF002017E69C40E7D6F50
:10405000010E806F400E7F6F826B030E816F000137
:10406000C8EC0DF001527AE1010143513F083EE0F6
:10407000010E0201806F400E7F6F200E816F0001E4
:104080006BEC0EF002C07BF201C07AF2010E02016D
:104090007A257D6F000E7B217E6F846F7DC283F257
:1040A000866B856B000140EC10F003C05AF002C033
:1040B00059F001C058F000C057F00D0E4824016EB1
:1040C000000E4920036E01C07DF202017E6F806BFD
:1040D000570E7F6F01C085F280C287F2866F896BB1
:1040E000040E886F00010CEC05F001010D0E482450
:1040F000016E000E4920036E01C07DF202017E6F49
:10410000806B570E7F6F01C085F280C287F2866F89
:10411000896B040E886F000142EC05F0C40EF66E48
:10412000080EF76E040E02018C6F00011CEC0DF0FE
:10413000890EE96E5AC08FF259C08EF258C08DF2C6
:1041400057C08CF2020E0201906F0001D8EC11F002
:104150000D0E9EA8FED7AD6E7EEF2BF002017E699C
:10416000C00E7D6F010E806F400E7F6F826B030E5D
:10417000816F0001C8EC0DF00152D8A48DD101016E
:1041800043513F08D8B4ECD0010E0201806F400EBD
:104190007F6F200E816F00016BEC0EF002C07BF28E
:1041A00001C07AF2010E02017A257D6F000E7B219B
:1041B0007E6F806F7DC27FF200015EEC13F002C063
:1041C000B0F001C0AFF0010E02017A257D6F000E44
:1041D0007B217E6F806F7DC27FF2200E816F000198
:1041E0006BEC0EF002C07BF201C07AF2010E02010C
:1041F0007A257D6F000E7B217E6F806F7DC27FF2FE
:1042000000015EEC13F002C0B4F001C0B3F0010E87
:1042100002017A257D6F000E7B217E6F806F7DC24B
:104220007FF2200E816F00016BEC0EF002C07BF27A
:1042300001C07AF2010E02017A257D6F000E7B210A
:104240007E6F806F7DC27FF200015EEC13F002C0D2
:10425000B6F001C0B5F0010E02017A257D6F000EA7
:104260007B217E6F806F7DC27FF2200E816F000107
:104270006BEC0EF002C07BF201C07AF2010E02017B
:104280007A257D6F000E7B217E6F806F7DC27FF26D
:1042900000015EEC13F002C0B2F001C0B1F0650E97
:1042A0004824016E000E4920036E01C07DF2020118
:1042B0007E6F806BAF0E7F6F01C085F280C287F288
:1042C000866F896B020E886F00010CEC05F0690E99
:1042D0004824016E000E4920036E01C07DF20201E8
:1042E0007E6F806BB30E7F6F01C085F280C287F254
:1042F000866F896B020E886F00010CEC05F06B0E67
:104300004824016E000E4920036E01C07DF20201B7
:104310007E6F806BB50E7F6F01C085F280C287F221
:10432000866F896B020E886F00010CEC05F0670E3A
:104330004824016E000E4920036E01C07DF2020187
:104340007E6F806BB10E7F6F01C085F280C287F2F5
:10435000866F896B020E886F00010CEC05F001017D
:10436000650E4824016E000E4920036E01C07DF2E7
:1043700002017E6F806BAF0E7F6F01C085F280C23D
:1043800087F2866F896B020E886F000142EC05F0A0
:10439000690E4824016E000E4920036E01C07DF2B3
:1043A00002017E6F806BB30E7F6F01C085F280C209
:1043B00087F2866F896B020E886F000142EC05F070
:1043C0006B0E4824016E000E4920036E01C07DF281
:1043D00002017E6F806BB50E7F6F01C085F280C2D7
:1043E00087F2866F896B020E886F000142EC05F040
:1043F000670E4824016E000E4920036E01C07DF255
:1044000002017E6F806BB10E7F6F01C085F280C2AA
:1044100087F2866F896B020E886F000142EC05F00F
:10442000CC0EF66E080EF76E040E02018C6F0001C2
:104430001CEC0DF0100EE96EB0C07EF2AFC07DF244
:10444000A8EC12F0200E9EA8FED7AD6E100EE96EFD
:10445000B4C07EF2B3C07DF2A8EC12F0200E9EA88C
:10446000FED7AD6E100EE96EB6C07EF2B5C07DF21D
:10447000A8EC12F0200E9EA8FED7AD6E100EE96ECD
:10448000B2C07EF2B1C07DF2A8EC12F00D0E9EA873
:10449000FED7AD6E7EEF2BF002017E69BC0E7D6F04
:1044A000010E806F400E7F6F826B030E816F0001E3
:1044B000C8EC0DF0015263E11C0E016EC250830B7B
:1044C0000110C26EC282C2B2FED7C4CFDDF1180E97
:1044D000016EC250830B0110C26E4C500101DD5DB4
:1044E00003E3DD514D5C02E2E28D01D0E29DC28228
:1044F000C2B2FED7C4CFDEF11C0E016EC250830BD8
:104500000110C26E4E50DE5D03E3DE514F5C02E2ED
:10451000E28B01D0E29B000E81B0010E02017D6FA3
:10452000E20EF66E080EF76E040E8C6F00011CECA6
:104530000DF0DDC18CF21B0E02018D6F00012CEC21
:104540000EF0200E9EA8FED7AD6EDEC18CF21B0EC3
:1045500002018D6F00012CEC0EF0200E9EA8FED7FC
:10456000AD6E7DC28CF21B0E02018D6F00012CEC32
:104570000EF00D0E9EA8FED7AD6E7EEF2BF0020161
:104580007E69B80E7D6F010E806F400E7F6F826B6B
:10459000030E816F0001C8EC0DF00152D8A4D0D0F9
:1045A000010143513F0874E0010E0201806F400E8B
:1045B0007F6F200E816F00016BEC0EF002C07BF26A
:1045C00001C07AF2010E02017A257D6F000E7B2177
:1045D0007E6F806F7DC27FF200015EEC13F002C03F
:1045E00051F001C050F0010E02017A257D6F000EDE
:1045F0007B217E6F806F7DC27FF2200E816F000174
:104600006BEC0EF002C07BF201C07AF2010E0201E7
:104610007A257D6F000E7B217E6F806F7DC27FF2D9
:1046200000015EEC13F002C053F001C052F0060E20
:104630004824016E000E4920036E01C07DF2020184
:104640007E6F806B500E7F6F01C085F280C287F253
:10465000866F896B020E886F00010CEC05F0080E66
:104660004824016E000E4920036E01C07DF2020154
:104670007E6F806B520E7F6F01C085F280C287F221
:10468000866F896B020E886F00010CEC05F001014A
:10469000060E4824016E000E4920036E01C07DF213
:1046A00002017E6F806B500E7F6F01C085F280C269
:1046B00087F2866F896B020E886F000142EC05F06D
:1046C000080E4824016E000E4920036E01C07DF2E1
:1046D00002017E6F806B520E7F6F01C085F280C237
:1046E00087F2866F896B020E886F000142EC05F03D
:1046F000F00EF66E080EF76E040E02018C6F0001CC
:104700001CEC0DF0100EE96E51C07EF250C07DF22F
:10471000A8EC12F0200E9EA8FED7AD6E100EE96E2A
:1047200053C07EF252C07DF2A8EC12F0200E9EA87B
:10473000FED7AD6E0D0E9EA8FED7AD6E7EEF2BF0B0
:1047400002017E69B40E7D6F010E806F400E7F6F97
:10475000826B030E816F0001C8EC0DF0015221E164
:10476000FE0EF66E080EF76E040E02018C6F00014D
:104770001CEC0DF0EA6A350EE96E31EC0DF0200EFE
:104780009EA8FED7AD6EE0C181F2180E0201826FC5
:1047900000015AEC0DF00D0E9EA8FED7AD6E7EEF17
:1047A0002BF002017E69B00E7D6F010E806F400E0E
:1047B0007F6F826B030E816F0001C8EC0DF0015218
:1047C0001FE1010E0201806F400E7F6F200E816F8E
:1047D00000016BEC0EF002C07BF201C07AF2010E18
:1047E00002017A257D6F000E7B217E6F846F7DC272
:1047F00083F20001C7EC0EF001C0E4F17EEF2BF074
:1048000002017E69AC0E7D6F010E806F400E7F6FDE
:10481000826B030E816F0001C8EC0DF0015213E1B1
:104820000101435121080DE10A0EF66E090EF76EE3
:10483000000150EC14F0F29CF29EF2BEFDD7FFD7BF
:1048400001017EEF2BF002017E69A80E7D6F010E43
:10485000806F400E7F6F826B030E816F0001C8EC8A
:104860000DF00152D8A418D3010143513F08D8B428
:104870009BD1010E0201806F400E7F6F200E816F71
:1048800000016BEC0EF002C07BF201C07AF2010E67
:1048900002017A257D6F000E7B217E6F846F7DC2C1
:1048A00083F20001C7EC0EF0010E015C0201766F8D
:1048B000010E7A257D6F000E7B217E6F806F7DC299
:1048C0007FF2200E816F00016BEC0EF002C07BF2D4
:1048D00001C07AF2020176510C0DF350036A660FA3
:1048E000016E000E032201C07FF203C080F2010EB0
:1048F0007A25816F000E7B21826F846F81C283F2E3
:10490000866B856B000140EC10F080C2EAFF7FC22D
:10491000E9FF00C0EFFF01C0ECFF02C0ECFF03C0E5
:10492000ECFF010E02017A257D6F000E7B217E6F68
:10493000806F7DC27FF2200E816F00016BEC0EF064
:1049400002C07BF201C07AF2020176510C0DF350E5
:10495000036A1C0F7D6F000E03207E6F040E7D2501
:10496000016E000E7E21036E01504A0F016E000E93
:10497000032201C07DF203C07EF2010E7A257F6F13
:10498000000E7B21806F846F7FC283F2866B856B04
:10499000000140EC10F07EC2EAFF7DC2E9FF00C0DA
:1049A000EFFF01C0ECFF02C0ECFF03C0ECFF010E03
:1049B00002017A257D6F000E7B217E6F806F7DC2A4
:1049C0007FF2200E816F00016BEC0EF002C07BF2D3
:1049D00001C07AF2020176510C0DF350036A1C0FEC
:1049E0007D6F000E03207E6F080E7D25016E000E88
:1049F0007E21036E01504A0F016E000E032201C09A
:104A00007DF203C07EF2010E7A257F6F000E7B21BE
:104A1000806F846F7FC283F2866B856B000140ECF0
:104A200010F07EC2EAFF7DC2E9FF00C0EFFF01C0C7
:104A3000ECFF02C0ECFF03C0ECFF02017E6B76C20C
:104A40007DF2806B0C0E7F6F000161EC14F0015061
:104A50001C0F02017D6F000E02207E6F48507D25E5
:104A6000016E49507E21036E01C085F2806F765140
:104A70000C0DF350036A660F016E000E032201C095
:104A800083F203C084F203C087F201C086F2896B0F
:104A9000040E886F00010CEC05F002017E6B76C2FB
:104AA0007DF2806B0C0E7F6F000161EC14F0015001
:104AB0001C0F02017D6F000E02207E6F040E7D250B
:104AC000016E000E7E21036E01504824016E495094
:104AD000032201C085F203C07EF276510C0DF35023
:104AE000036A1C0F7F6F000E0320806F040E7F256A
:104AF000016E000E8021036E01504A0F016E000E00
:104B0000032201C07FF203C080F203C087F201C01C
:104B100086F2896B040E886F00010CEC05F002012F
:104B20007E6B76C27DF2806B0C0E7F6F000161ECB4
:104B300014F001501C0F02017D6F000E02207E6FE9
:104B4000080E7D25016E000E7E21036E0150482463
:104B5000016E4950032201C085F203C07EF27651F6
:104B60000C0DF350036A1C0F7F6F000E0320806F43
:104B7000080E7F25016E000E8021036E01504A0F42
:104B8000016E000E032201C07FF203C080F203C059
:104B900087F201C086F2896B040E886F00010CEC6D
:104BA00005F0A9EC08F00101010E0201806F400E32
:104BB0007F6F200E816F00016BEC0EF002C07BF264
:104BC00001C07AF2010E02017A257D6F000E7B2171
:104BD0007E6F846F7DC283F20001C7EC0EF0010E80
:104BE000015C0201766F7E6B76C27DF2806B0C0EEB
:104BF0007F6F000161EC14F001501C0F02017D6F0A
:104C0000000E02207E6F48507D25016E49507E21A6
:104C1000036E01C085F2806F76510C0DF350036A6C
:104C2000660F016E000E032201C083F203C084F2FE
:104C300003C087F201C086F2896B040E886F000101
:104C400042EC05F002017E6B76C27DF2806B0C0EA9
:104C50007F6F000161EC14F001501C0F02017D6FA9
:104C6000000E02207E6F040E7D25016E000E7E2157
:104C7000036E01504824016E4950032201C085F2A1
:104C800003C07EF276510C0DF350036A1C0F7F6F48
:104C9000000E0320806F040E7F25016E000E802120
:104CA000036E01504A0F016E000E032201C07FF215
:104CB00003C080F203C087F201C086F2896B040E44
:104CC000886F000142EC05F002017E6B76C27DF236
:104CD000806B0C0E7F6F000161EC14F001501C0F13
:104CE00002017D6F000E02207E6F080E7D25016E91
:104CF000000E7E21036E01504824016E49500322AC
:104D000001C085F203C07EF276510C0DF350036AA8
:104D10001C0F7F6F000E0320806F080E7F25016E31
:104D2000000E8021036E01504A0F016E000E032217
:104D300001C07FF203C080F203C087F201C086F297
:104D4000896B040E886F000142EC05F0010E020130
:104D500076257D6F76510C0DF350036A660FE96E70
:104D6000000E0320EA6EEFCF80F2ECCF81F2ECCFA1
:104D700082F2ECCF83F276510C0DF350036A1C0FD4
:104D8000846F000E0320856F040E8425016E000ED3
:104D90008521036E01504A0FE96E000E0320EA6E72
:104DA000EFCF84F2ECCF85F2ECCF86F2ECCF87F236
:104DB00076510C0DF350036A1C0F886F000E032010
:104DC000896F080E8825016E000E8921036E01503F
:104DD0004A0FE96E000E0320EA6EEFCF88F2ECCFA7
:104DE00089F2ECCF8AF2ECCF8BF2160EF66E090E3A
:104DF000F76E030E8C6F00011CEC0DF07DC28CF27F
:104E00001B0E02018D6F00012CEC0EF0200E9EA8EF
:104E1000FED7AD6E890EE96E83C28FF282C28EF22A
:104E200081C28DF280C28CF2060E0201906F0001E9
:104E3000D8EC11F0200E9EA8FED7AD6E890EE96E5B
:104E400087C28FF286C28EF285C28DF284C28CF246
:104E5000060E0201906F0001D8EC11F0200E9EA802
:104E6000FED7AD6E890EE96E8BC28FF28AC28EF2CA
:104E700089C28DF288C28CF2060E0201906F000189
:104E8000D8EC11F0200E9EA8FED7AD6E0D0E9EA898
:104E9000FED7AD6E7EEF2BF002017E69A40E7D6F12
:104EA000010E806F400E7F6F826B030E816F0001D9
:104EB000C8EC0DF0015234E1300EF66E090EF76EBB
:104EC000040E02018C6F00011CEC0DF0890EE96EDE
:104ED00043C08FF242C08EF241C08DF240C08CF2CE
:104EE000060E0201906F0001D8EC11F0200E9EA872
:104EF000FED7AD6E890EE96E47C08FF246C08EF2C6
:104F000045C08DF244C08CF2060E0201906F000184
:104F1000D8EC11F00D0E9EA8FED7AD6E7EEF2BF0F3
:104F200002017E69A00E7D6F010E806F400E7F6FC3
:104F3000826B030E816F0001C8EC0DF001520DE190
:104F4000010E02017D6F00016BEC05F0420EF66E62
:104F5000090EF76E50EC14F0D1D302017E699A0E5F
:104F60007D6F010E806F400E7F6F826B050E816F2B
:104F70000001C8EC0DF001521DE1F250006EF29EEE
:104F8000030EAA6EA968A86AA69CA69EA6840F0115
:104F9000550EA76EAA0EA76EA682A6B2FED7A6943D
:104FA0000050F2120A0E0201816F000114EC09F0A8
:104FB000FF00A4D302017E69960E7D6F010E806F03
:104FC000400E7F6F826B030E816F0001C8EC0DF005
:104FD000015202E1FF0092D302017E69920E7D6FC1
:104FE000010E806F400E7F6F826B030E816F000198
:104FF000C8EC0DF0015207E1480EF66E090EF76E8F
:1050000050EC14F07BD302017E698E0E7D6F010E91
:10501000806F400E7F6F826B030E816F0001C8ECC2
:105020000DF001526BE1010143513F0838E0010EE0
:105030000201806F400E7F6F200E816F00016BECCC
:105040000EF002C07BF201C07AF2010E02017A2555
:105050007D6F000E7B217E6F806F7DC27FF200012D
:105060005EEC13F002C0ABF001C0AAF0600E482461
:10507000016E000E4920036E01C07DF202017E6FB9
:10508000806BAA0E7F6F01C085F280C287F2866FA7
:10509000896B020E886F00010CEC05F00101600EB7
:1050A0004824016E000E4920036E01C07DF202010A
:1050B0007E6F806BAA0E7F6F01C085F280C287F27F
:1050C000866F896B020E886F000142EC05F06A0E54
:1050D000F66E090EF76E040E02018C6F00011CECD7
:1050E0000DF0100EE96EABC07EF2AAC07DF2A8EC06
:1050F00012F00D0E9EA8FED7AD6E00D302017E69A0
:105100008A0E7D6F010E806F400E7F6F826B030EE3
:10511000816F0001C8EC0DF00152D8A4D0D101017B
:1051200043515208D8A475D0F29CF29EF2BEFDD72E
:105130000201736B0001B7510201735D66E2D89002
:105140007335036AB80FE96E000E0320EA6EEFCFE5
:105150007FF2D8907335036A6E0F806F000E0320C4
:10516000816F010E8025016E000E8121036E0150BA
:105170004A0FE96E000E0320EA6EEFCF80F2740E44
:10518000F66E090EF76E040E8C6F00011CEC0DF02C
:10519000B7C08CF21B0E02018D6F00012CEC0EF0DB
:1051A000200E9EA8FED7AD6E73C28CF21B0E0201BC
:1051B0008D6F00012CEC0EF0200E9EA8FED7AD6E78
:1051C0007FC281F2180E0201826F00015AEC0DF0CD
:1051D000200E9EA8FED7AD6E80C281F2180E02018D
:1051E000826F00015AEC0DF0200E9EA8FED7AD6E26
:1051F0000D0E9EA8FED7AD6EC80E0201816F000194
:1052000014EC09F00201732B95D7C00EF21256D19F
:10521000010143515708D8A450D1010E0201806FFB
:10522000400E7F6F200E816F00016BEC0EF002C00C
:105230007BF201C07AF2010E02017A257D6F000E29
:105240007B217E6F846F7DC283F20001C7EC0EF07C
:1052500001C0B7F0010E02017A257D6F000E7B219F
:105260007E6F806F7DC27FF2200E816F00016BEC3C
:105270000EF002C07BF201C07AF2010E02017A2523
:105280007D6F000E7B217E6F846F7DC283F20001F3
:10529000C7EC0EF001C073F2010E02017A257D6F9A
:1052A000000E7B217E6F806F7DC27FF2200E816FAA
:1052B00000016BEC0EF002C07BF201C07AF2D890D4
:1052C00002017335036AB80F016E000E032201C09C
:1052D0007FF203C080F2010E7A25816F000E7B21E0
:1052E000826F846F81C283F20001C7EC0EF080C22E
:1052F000EAFF7FC2E9FF01C0EFFF010E02017A253C
:105300007D6F000E7B217E6F806F7DC27FF2200E4D
:10531000816F00016BEC0EF002C07BF201C07AF2EB
:10532000D89002017335036A6E0F7D6F000E032063
:105330007E6F010E7D25016E000E7E21036E0150F1
:105340004A0F016E000E032201C07DF203C07EF2FF
:10535000010E7A257F6F000E7B21806F846F7FC2E4
:1053600083F20001C7EC0EF07EC2EAFF7DC2E9FFC6
:1053700001C0EFFF6D0E4824016E000E4920036E40
:10538000015002017D6F03C07EF2F250006EF29E6A
:105390007EC2AAFF7DC2A9FFB7C0A8FFA69CA69E99
:1053A000A6840F01550EA76EAA0EA76EA682A6B2FE
:1053B000FED7A6940050F212036A02017351026EE6
:1053C000D8900236033602506E0F7D6F000E032018
:1053D0007E6F48507D25016E49507E21036E01503D
:1053E0007F6F03C080F2D8907335036AB80FE96EFF
:1053F000000E0320EA6EEFCF83F2F250006EF29EB1
:1054000080C2AAFF7FC2A9FF83C2A8FFA69CA69E56
:10541000A6840F01550EA76EAA0EA76EA682A6B28D
:10542000FED7A6940050F212036A02017351026E75
:10543000D8900236033602506E0F7D6F000E0320A7
:105440007E6F010E7D25016E000E7E21036E0150E0
:105450004824016E4950032201507D6F03C07EF243
:10546000D8907335036A6E0F7F6F000E0320806F34
:10547000010E7F25016E000E8021036E01504A0F40
:10548000E96E000E0320EA6EEFCF7FF2F250006E5D
:10549000F29E7EC2AAFF7DC2A9FF7FC2A8FFA69C82
:1054A000A69EA6840F01550EA76EAA0EA76EA68211
:1054B000A6B2FED7A6940050F212020120D102013A
:1054C0007E69860E7D6F010E806F400E7F6F826B4E
:1054D000030E816F0001C8EC0DF001520AE1010ECC
:1054E00002016C6F0101E285F29CF29EF2BEFDD7D3
:1054F00005D102017E69820E7D6F010E806F400E24
:105500007F6F826B030E816F0001C8EC0DF00152BA
:10551000D8A4B0D0010E0201806F400E7F6F200E24
:10552000816F00016BEC0EF002C07BF201C07AF2D9
:10553000010E02017A257D6F000E7B217E6F806F48
:105540007DC27FF200015EEC13F002C0C3F101C026
:10555000C2F1010E02017A257D6F000E7B217E6F64
:10556000806F7DC27FF2200E816F00016BEC0EF028
:1055700002C07BF201C07AF2010E02017A257D6F32
:10558000000E7B217E6F806F7DC27FF200015EEC9A
:1055900013F002C0C5F101C0C4F1010E02017A2569
:1055A0007D6F000E7B217E6F806F7DC27FF2200EAB
:1055B000816F00016BEC0EF002C07BF201C07AF249
:1055C000010E02017A257D6F000E7B217E6F806FB8
:1055D0007DC27FF200015EEC13F002C0C7F101C092
:1055E000C6F1010E02017A257D6F000E7B217E6FD0
:1055F000806F7DC27FF2200E816F00016BEC0EF098
:1056000002C07BF201C07AF2010E02017A257D6FA1
:10561000000E7B217E6F806F7DC27FF200015EEC09
:1056200013F002C0C9F101C0C8F1010E02017A25D0
:105630007D6F000E7B217E6F806F7DC27FF2200E1A
:10564000816F00016BEC0EF002C07BF201C07AF2B8
:10565000010E02017A257D6F000E7B217E6F806F27
:105660007DC27FF200015EEC13F002C0CBF101C0FD
:10567000CAF144D002017E697E0E7D6F010E806FFB
:10568000400E7F6F826B030E816F0001C8EC0DF03E
:1056900001521EE1010E0201806F400E7F6F200E4D
:1056A000816F00016BEC0EF002C07BF201C07AF258
:1056B000010E02017A257D6F000E7B217E6F846FC3
:1056C0007DC283F20001C7EC0EF001C0E1F116D0FB
:1056D000860EF66E090EF76E040E02018C6F000145
:1056E0001CEC0DF00A0E02018C6F1B0E8D6F000179
:1056F0002CEC0EF00D0E9EA8FED7AD6E02016C5381
:1057000007E10A0E816F000114EC09F0DDD10201FE
:10571000640E816F000114EC09F0040002016C5169
:10572000010A000138E0030A49E0010A5AE0070AC9
:10573000D8B46AD0010AD8B47AD0030AD8B48AD0CF
:10574000010AD8B49AD00F0AD8B4AAD0010AD8B4A2
:10575000BAD0030AD8B4CAD0010AD8B4DAD0070A3A
:10576000D8B4EAD0010AD8B4FAD0030AD8B40AD11E
:10577000010AD8B41AD11F0AD8B42AD1010AD8B460
:105780003AD1030AD8B44AD1010AD8B45AD1070A87
:10579000D8B46AD17CD1010EEA6E400EE96E000EDB
:1057A00001EC01F00A000900F550EE6E0009FBE182
:1057B00002016C2B010E016E8AD10001010EEA6E0E
:1057C000400EE96E000EF7EC00F00A000900F550FB
:1057D000EE6E0009FBE102016C2B010E016E77D128
:1057E0000001010EEA6E400EE96E000E0BEC01F0B6
:1057F0000A000900F550EE6E0009FBE102016C2B76
:10580000010E016E64D10001010EEA6E400EE96ED8
:10581000000E16EC01F00A000900F550EE6E0009CA
:10582000FBE102016C2B010E016E51D10001010E52
:10583000EA6E400EE96E000E21EC01F00A0009004C
:10584000F550EE6E0009FBE102016C2B010E016EBA
:105850003ED10001010EEA6E400EE96E000E2CEC06
:1058600001F00A000900F550EE6E0009FBE10201AB
:105870006C2B010E016E2BD10001010EEA6E400E61
:10588000E96E000E37EC01F00A000900F550EE6EEB
:105890000009FBE102016C2B010E016E18D1000121
:1058A000010EEA6E400EE96E000E42EC01F00A00B5
:1058B0000900F550EE6E0009FBE102016C2B010EB0
:1058C000016E05D10001010EEA6E400EE96E000E78
:1058D0004DEC01F00A000900F550EE6E0009FBE105
:1058E00002016C2B010E016EF2D00001010EEA6E76
:1058F000400EE96E000E58EC01F00A000900F55068
:10590000EE6E0009FBE102016C2B010E016EDFD08F
:105910000001010EEA6E400EE96E000E63EC01F02C
:105920000A000900F550EE6E0009FBE102016C2B44
:10593000010E016ECCD00001010EEA6E400EE96E40
:10594000000E6EEC01F00A000900F550EE6E000941
:10595000FBE102016C2B010E016EB9D00001010EBA
:10596000EA6E400EE96E000E7AEC01F00A000900C2
:10597000F550EE6E0009FBE102016C2B010E016E89
:10598000A6D00001010EEA6E400EE96E000E86EC14
:1059900001F00A000900F550EE6E0009FBE102017A
:1059A0006C2B010E016E93D00001010EEA6E400EC9
:1059B000E96E000E92EC01F00A000900F550EE6E5F
:1059C0000009FBE102016C2B010E016E80D0000189
:1059D000010EEA6E400EE96E000E9EEC01F00A0028
:1059E0000900F550EE6E0009FBE102016C2B010E7F
:1059F000016E6DD00001010EEA6E400EE96E000EE0
:105A0000E1EC00F00A000900F550EE6E0009FBE140
:105A100002016C2B010E016E5AD00001010EEA6EDC
:105A2000400EE96E000EAAEC01F00A000900F550E4
:105A3000EE6E0009FBE102016C2B010E016E47D0F6
:105A40000001010EEA6E400EE96E000EB5EC01F0A9
:105A50000A000900F550EE6E0009FBE102016C2B13
:105A6000010E016E34D00001010EEA6E400EE96EA7
:105A7000000EC0EC01F00A000900F550EE6E0009BE
:105A8000FBE102016C2B010E016E21D000018E0E94
:105A9000F66E090EF76E50EC14F00A0E0201816FDB
:105AA000000114EC09F002016C6B0101E293A19A70
:105AB0009E92A1927E94F292F090C00EF212000E8D
:105AC000016E020104D0000102017CC201F000015C
:105AD0001200F86AF1949F92A292F09C9F9AA28A77
